{
  "address": "0x9CFBFc54389318fa65958237C5143256B198fC23",
  "abi": [
    {
      "anonymous": false,
      "inputs": [
        {
          "indexed": false,
          "internalType": "uint8",
          "name": "version",
          "type": "uint8"
        }
      ],
      "name": "Initialized",
      "type": "event"
    },
    {
      "anonymous": false,
      "inputs": [
        {
          "indexed": true,
          "internalType": "bytes32",
          "name": "role",
          "type": "bytes32"
        },
        {
          "indexed": true,
          "internalType": "bytes32",
          "name": "previousAdminRole",
          "type": "bytes32"
        },
        {
          "indexed": true,
          "internalType": "bytes32",
          "name": "newAdminRole",
          "type": "bytes32"
        }
      ],
      "name": "RoleAdminChanged",
      "type": "event"
    },
    {
      "anonymous": false,
      "inputs": [
        {
          "indexed": true,
          "internalType": "bytes32",
          "name": "role",
          "type": "bytes32"
        },
        {
          "indexed": true,
          "internalType": "address",
          "name": "account",
          "type": "address"
        },
        {
          "indexed": true,
          "internalType": "address",
          "name": "sender",
          "type": "address"
        }
      ],
      "name": "RoleGranted",
      "type": "event"
    },
    {
      "anonymous": false,
      "inputs": [
        {
          "indexed": true,
          "internalType": "bytes32",
          "name": "role",
          "type": "bytes32"
        },
        {
          "indexed": true,
          "internalType": "address",
          "name": "account",
          "type": "address"
        },
        {
          "indexed": true,
          "internalType": "address",
          "name": "sender",
          "type": "address"
        }
      ],
      "name": "RoleRevoked",
      "type": "event"
    },
    {
      "inputs": [],
      "name": "DEFAULT_ADMIN_ROLE",
      "outputs": [
        {
          "internalType": "bytes32",
          "name": "",
          "type": "bytes32"
        }
      ],
      "stateMutability": "view",
      "type": "function"
    },
    {
      "inputs": [],
      "name": "DEPOSITOR_ROLE",
      "outputs": [
        {
          "internalType": "bytes32",
          "name": "",
          "type": "bytes32"
        }
      ],
      "stateMutability": "view",
      "type": "function"
    },
    {
      "inputs": [],
      "name": "HARVESTER_ROLE",
      "outputs": [
        {
          "internalType": "bytes32",
          "name": "",
          "type": "bytes32"
        }
      ],
      "stateMutability": "view",
      "type": "function"
    },
    {
      "inputs": [],
      "name": "WITHDRAWER_ROLE",
      "outputs": [
        {
          "internalType": "bytes32",
          "name": "",
          "type": "bytes32"
        }
      ],
      "stateMutability": "view",
      "type": "function"
    },
    {
      "inputs": [
        {
          "internalType": "address",
          "name": "pair",
          "type": "address"
        },
        {
          "internalType": "uint256",
          "name": "amount",
          "type": "uint256"
        }
      ],
      "name": "_stakeLP",
      "outputs": [],
      "stateMutability": "nonpayable",
      "type": "function"
    },
    {
      "inputs": [
        {
          "internalType": "address",
          "name": "pair",
          "type": "address"
        },
        {
          "internalType": "address",
          "name": "to",
          "type": "address"
        }
      ],
      "name": "_unstakeLP",
      "outputs": [],
      "stateMutability": "nonpayable",
      "type": "function"
    },
    {
      "inputs": [
        {
          "internalType": "bytes32",
          "name": "role",
          "type": "bytes32"
        }
      ],
      "name": "getRoleAdmin",
      "outputs": [
        {
          "internalType": "bytes32",
          "name": "",
          "type": "bytes32"
        }
      ],
      "stateMutability": "view",
      "type": "function"
    },
    {
      "inputs": [
        {
          "internalType": "bytes32",
          "name": "role",
          "type": "bytes32"
        },
        {
          "internalType": "address",
          "name": "account",
          "type": "address"
        }
      ],
      "name": "grantRole",
      "outputs": [],
      "stateMutability": "nonpayable",
      "type": "function"
    },
    {
      "inputs": [
        {
          "internalType": "address",
          "name": "pair",
          "type": "address"
        },
        {
          "internalType": "address",
          "name": "to",
          "type": "address"
        }
      ],
      "name": "harvest",
      "outputs": [],
      "stateMutability": "nonpayable",
      "type": "function"
    },
    {
      "inputs": [
        {
          "internalType": "bytes32",
          "name": "role",
          "type": "bytes32"
        },
        {
          "internalType": "address",
          "name": "account",
          "type": "address"
        }
      ],
      "name": "hasRole",
      "outputs": [
        {
          "internalType": "bool",
          "name": "",
          "type": "bool"
        }
      ],
      "stateMutability": "view",
      "type": "function"
    },
    {
      "inputs": [],
      "name": "initialize",
      "outputs": [],
      "stateMutability": "nonpayable",
      "type": "function"
    },
    {
      "inputs": [],
      "name": "mendi",
      "outputs": [
        {
          "internalType": "address",
          "name": "",
          "type": "address"
        }
      ],
      "stateMutability": "view",
      "type": "function"
    },
    {
      "inputs": [],
      "name": "oLYNX",
      "outputs": [
        {
          "internalType": "address",
          "name": "",
          "type": "address"
        }
      ],
      "stateMutability": "view",
      "type": "function"
    },
    {
      "inputs": [
        {
          "internalType": "bytes32",
          "name": "role",
          "type": "bytes32"
        },
        {
          "internalType": "address",
          "name": "account",
          "type": "address"
        }
      ],
      "name": "renounceRole",
      "outputs": [],
      "stateMutability": "nonpayable",
      "type": "function"
    },
    {
      "inputs": [
        {
          "internalType": "bytes32",
          "name": "role",
          "type": "bytes32"
        },
        {
          "internalType": "address",
          "name": "account",
          "type": "address"
        }
      ],
      "name": "revokeRole",
      "outputs": [],
      "stateMutability": "nonpayable",
      "type": "function"
    },
    {
      "inputs": [
        {
          "internalType": "bytes4",
          "name": "interfaceId",
          "type": "bytes4"
        }
      ],
      "name": "supportsInterface",
      "outputs": [
        {
          "internalType": "bool",
          "name": "",
          "type": "bool"
        }
      ],
      "stateMutability": "view",
      "type": "function"
    },
    {
      "inputs": [],
      "name": "voter",
      "outputs": [
        {
          "internalType": "address",
          "name": "",
          "type": "address"
        }
      ],
      "stateMutability": "view",
      "type": "function"
    }
  ],
  "transactionHash": "0x912190cd0cbe4ed1eb395417bba6625932a33d7efe0820eeaffb2d55f8c836fe",
  "args": [],
  "numDeployments": 1,
  "solcInputHash": "00c9a0147b9c2e52475b552db9952d86",
  "bytecode": "0x608060405234801561001057600080fd5b50611411806100206000396000f3fe608060405234801561001057600080fd5b506004361061010b5760003560e01c806366cc1857116100a2578063a217fddf11610071578063a217fddf14610276578063a3b0b5a31461027e578063b087b3b4146102a5578063c0f72288146102b8578063d547741f146102cb57600080fd5b806366cc1857146102215780638129fc1c1461023457806385f438c11461023c57806391d148541461026357600080fd5b806346c96aac116100de57806346c96aac1461019157806349f517a0146101c45780635f33f281146101df57806363a560ec146101fa57600080fd5b806301ffc9a714610110578063248a9ca3146101385780632f2ff15d1461016957806336568abe1461017e575b600080fd5b61012361011e3660046110c5565b6102de565b60405190151581526020015b60405180910390f35b61015b6101463660046110ef565b60009081526065602052604090206001015490565b60405190815260200161012f565b61017c61017736600461111d565b610315565b005b61017c61018c36600461111d565b61033f565b6101ac730b2c83b6e39e32f694a86633b4d1fe69d13b63c581565b6040516001600160a01b03909116815260200161012f565b6101ac7363349ba5e1f71252ecd56e8f950d1a518b400b6081565b6101ac7343e8809ea748eff3204ee01f08872f063e44065f81565b61015b7f3fc733b4d20d27a28452ddf0e9351aced28242fe03389a653cdb783955316b9b81565b61017c61022f36600461114d565b6103c2565b61017c61043b565b61015b7f10dac8c06a04bec0b551627dad28bc00d6516b0caacd1c7b345fcdb5211334e481565b61012361027136600461111d565b610557565b61015b600081565b61015b7f8f4f2da22e8ac8f11e15f9fc141cddbb5deea8800186560abb6e68c5496619a981565b61017c6102b336600461114d565b610582565b61017c6102c636600461117b565b6105df565b61017c6102d936600461111d565b610647565b60006001600160e01b03198216637965db0b60e01b148061030f57506301ffc9a760e01b6001600160e01b03198316145b92915050565b6000828152606560205260409020600101546103308161066c565b61033a8383610676565b505050565b6001600160a01b03811633146103b45760405162461bcd60e51b815260206004820152602f60248201527f416363657373436f6e74726f6c3a2063616e206f6e6c792072656e6f756e636560448201526e103937b632b9903337b91039b2b63360891b60648201526084015b60405180910390fd5b6103be82826106fc565b5050565b7f3fc733b4d20d27a28452ddf0e9351aced28242fe03389a653cdb783955316b9b6103ec8161066c565b6103f583610763565b60006104147363349ba5e1f71252ecd56e8f950d1a518b400b606108a3565b90506104357363349ba5e1f71252ecd56e8f950d1a518b400b60848361090e565b50505050565b600054610100900460ff161580801561045b5750600054600160ff909116105b806104755750303b158015610475575060005460ff166001145b6104d85760405162461bcd60e51b815260206004820152602e60248201527f496e697469616c697a61626c653a20636f6e747261637420697320616c72656160448201526d191e481a5b9a5d1a585b1a5e995960921b60648201526084016103ab565b6000805460ff1916600117905580156104fb576000805461ff0019166101001790555b610503610a19565b61050e600033610676565b8015610554576000805461ff0019169055604051600181527f7f26b83ff96e1f2b6a682f133852f6798a09c465da95921460cefb38474024989060200160405180910390a15b50565b60009182526065602090815260408084206001600160a01b0393909316845291905290205460ff1690565b7f10dac8c06a04bec0b551627dad28bc00d6516b0caacd1c7b345fcdb5211334e46105ac8161066c565b6105b583610a86565b60006105c9846001600160a01b03166108a3565b90506104356001600160a01b038516848361090e565b7f8f4f2da22e8ac8f11e15f9fc141cddbb5deea8800186560abb6e68c5496619a96106098161066c565b600019821415610629576106266001600160a01b03841633610b5e565b91505b61063e6001600160a01b038416333085610bd3565b61033a83610ce3565b6000828152606560205260409020600101546106628161066c565b61033a83836106fc565b6105548133610dbb565b6106808282610557565b6103be5760008281526065602090815260408083206001600160a01b03851684529091529020805460ff191660011790556106b83390565b6001600160a01b0316816001600160a01b0316837f2f8788117e7eff1d82e926ec794901d17c78024a50270940304540a733656f0d60405160405180910390a45050565b6107068282610557565b156103be5760008281526065602090815260408083206001600160a01b0385168085529252808320805460ff1916905551339285917ff6391f5c32d9c69d2a47ea670b442974b53935d1edc7fd64eb21e047a839171b9190a45050565b604080516001808252818301909252600091602080830190803683370190505090507363349ba5e1f71252ecd56e8f950d1a518b400b60816000815181106107ad576107ad6111bd565b6001600160a01b03928316602091820292909201015260405163b9a09fd560e01b81529083166004820152600090730b2c83b6e39e32f694a86633b4d1fe69d13b63c59063b9a09fd590602401602060405180830381865afa158015610817573d6000803e3d6000fd5b505050506040513d601f19601f8201168201806040525081019061083b91906111d3565b6040516331279d3d60e01b81529091506001600160a01b038216906331279d3d9061086c90309086906004016111f0565b600060405180830381600087803b15801561088657600080fd5b505af115801561089a573d6000803e3d6000fd5b50505050505050565b6040516370a0823160e01b81523060048201526000906001600160a01b038316906370a0823190602401602060405180830381865afa1580156108ea573d6000803e3d6000fd5b505050506040513d601f19601f8201168201806040525081019061030f919061124c565b604080516001600160a01b038481166024830152604480830185905283518084039091018152606490920183526020820180516001600160e01b031663a9059cbb60e01b179052915160009283929087169161096a9190611291565b6000604051808303816000865af19150503d80600081146109a7576040519150601f19603f3d011682016040523d82523d6000602084013e6109ac565b606091505b50915091508180156109d65750805115806109d65750808060200190518101906109d691906112ad565b610a125760405162461bcd60e51b815260206004820152600d60248201526c10b9b0b332aa3930b739b332b960991b60448201526064016103ab565b5050505050565b600054610100900460ff16610a845760405162461bcd60e51b815260206004820152602b60248201527f496e697469616c697a61626c653a20636f6e7472616374206973206e6f74206960448201526a6e697469616c697a696e6760a81b60648201526084016103ab565b565b60405163b9a09fd560e01b81526001600160a01b0382166004820152600090730b2c83b6e39e32f694a86633b4d1fe69d13b63c59063b9a09fd590602401602060405180830381865afa158015610ae1573d6000803e3d6000fd5b505050506040513d601f19601f82011682018060405250810190610b0591906111d3565b9050806001600160a01b031663853828b66040518163ffffffff1660e01b8152600401600060405180830381600087803b158015610b4257600080fd5b505af1158015610b56573d6000803e3d6000fd5b505050505050565b6040516370a0823160e01b81526001600160a01b038281166004830152600091908416906370a0823190602401602060405180830381865afa158015610ba8573d6000803e3d6000fd5b505050506040513d601f19601f82011682018060405250810190610bcc919061124c565b9392505050565b604080516001600160a01b0385811660248301528481166044830152606480830185905283518084039091018152608490920183526020820180516001600160e01b03166323b872dd60e01b1790529151600092839290881691610c379190611291565b6000604051808303816000865af19150503d8060008114610c74576040519150601f19603f3d011682016040523d82523d6000602084013e610c79565b606091505b5091509150818015610ca3575080511580610ca3575080806020019051810190610ca391906112ad565b610b565760405162461bcd60e51b815260206004820152601160248201527021736166655472616e7366657246726f6d60781b60448201526064016103ab565b60405163b9a09fd560e01b81526001600160a01b0382166004820152600090730b2c83b6e39e32f694a86633b4d1fe69d13b63c59063b9a09fd590602401602060405180830381865afa158015610d3e573d6000803e3d6000fd5b505050506040513d601f19601f82011682018060405250810190610d6291906111d3565b90506000610d78836001600160a01b03166108a3565b9050610d8e6001600160a01b0384168383610e14565b60405163b6b55f2560e01b8152600481018290526001600160a01b0383169063b6b55f259060240161086c565b610dc58282610557565b6103be57610dd281610f17565b610ddd836020610f29565b604051602001610dee9291906112cf565b60408051601f198184030181529082905262461bcd60e51b82526103ab91600401611344565b604080516001600160a01b038481166024830152604480830185905283518084039091018152606490920183526020820180516001600160e01b031663095ea7b360e01b1790529151600092839290871691610e709190611291565b6000604051808303816000865af19150503d8060008114610ead576040519150601f19603f3d011682016040523d82523d6000602084013e610eb2565b606091505b5091509150818015610edc575080511580610edc575080806020019051810190610edc91906112ad565b610a125760405162461bcd60e51b815260206004820152600c60248201526b2173616665417070726f766560a01b60448201526064016103ab565b606061030f6001600160a01b03831660145b60606000610f3883600261138d565b610f439060026113ac565b67ffffffffffffffff811115610f5b57610f5b6111a7565b6040519080825280601f01601f191660200182016040528015610f85576020820181803683370190505b509050600360fc1b81600081518110610fa057610fa06111bd565b60200101906001600160f81b031916908160001a905350600f60fb1b81600181518110610fcf57610fcf6111bd565b60200101906001600160f81b031916908160001a9053506000610ff384600261138d565b610ffe9060016113ac565b90505b6001811115611076576f181899199a1a9b1b9c1cb0b131b232b360811b85600f1660108110611032576110326111bd565b1a60f81b828281518110611048576110486111bd565b60200101906001600160f81b031916908160001a90535060049490941c9361106f816113c4565b9050611001565b508315610bcc5760405162461bcd60e51b815260206004820181905260248201527f537472696e67733a20686578206c656e67746820696e73756666696369656e7460448201526064016103ab565b6000602082840312156110d757600080fd5b81356001600160e01b031981168114610bcc57600080fd5b60006020828403121561110157600080fd5b5035919050565b6001600160a01b038116811461055457600080fd5b6000806040838503121561113057600080fd5b82359150602083013561114281611108565b809150509250929050565b6000806040838503121561116057600080fd5b823561116b81611108565b9150602083013561114281611108565b6000806040838503121561118e57600080fd5b823561119981611108565b946020939093013593505050565b634e487b7160e01b600052604160045260246000fd5b634e487b7160e01b600052603260045260246000fd5b6000602082840312156111e557600080fd5b8151610bcc81611108565b6001600160a01b038381168252604060208084018290528451918401829052600092858201929091906060860190855b8181101561123e578551851683529483019491830191600101611220565b509098975050505050505050565b60006020828403121561125e57600080fd5b5051919050565b60005b83811015611280578181015183820152602001611268565b838111156104355750506000910152565b600082516112a3818460208701611265565b9190910192915050565b6000602082840312156112bf57600080fd5b81518015158114610bcc57600080fd5b7f416363657373436f6e74726f6c3a206163636f756e7420000000000000000000815260008351611307816017850160208801611265565b7001034b99036b4b9b9b4b733903937b6329607d1b6017918401918201528351611338816028840160208801611265565b01602801949350505050565b6020815260008251806020840152611363816040850160208701611265565b601f01601f19169190910160400192915050565b634e487b7160e01b600052601160045260246000fd5b60008160001904831182151516156113a7576113a7611377565b500290565b600082198211156113bf576113bf611377565b500190565b6000816113d3576113d3611377565b50600019019056fea2646970667358221220aa928441e745fae2f35b39baad522113694c01cc3118f92ecc76e726d1786d3e64736f6c634300080a0033",
  "devdoc": {
    "kind": "dev",
    "methods": {
      "getRoleAdmin(bytes32)": {
        "details": "Returns the admin role that controls `role`. See {grantRole} and {revokeRole}. To change a role's admin, use {_setRoleAdmin}."
      },
      "grantRole(bytes32,address)": {
        "details": "Grants `role` to `account`. If `account` had not been already granted `role`, emits a {RoleGranted} event. Requirements: - the caller must have ``role``'s admin role. May emit a {RoleGranted} event."
      },
      "hasRole(bytes32,address)": {
        "details": "Returns `true` if `account` has been granted `role`."
      },
      "renounceRole(bytes32,address)": {
        "details": "Revokes `role` from the calling account. Roles are often managed via {grantRole} and {revokeRole}: this function's purpose is to provide a mechanism for accounts to lose their privileges if they are compromised (such as when a trusted device is misplaced). If the calling account had been revoked `role`, emits a {RoleRevoked} event. Requirements: - the caller must be `account`. May emit a {RoleRevoked} event."
      },
      "revokeRole(bytes32,address)": {
        "details": "Revokes `role` from `account`. If `account` had been granted `role`, emits a {RoleRevoked} event. Requirements: - the caller must have ``role``'s admin role. May emit a {RoleRevoked} event."
      },
      "supportsInterface(bytes4)": {
        "details": "See {IERC165-supportsInterface}."
      }
    },
    "version": 1
  },
  "userdoc": {
    "kind": "user",
    "methods": {},
    "version": 1
  },
  "storageLayout": {
    "storage": [
      {
        "astId": 415,
        "contract": "contracts/LPDepositor.sol:LPDepositor",
        "label": "_initialized",
        "offset": 0,
        "slot": "0",
        "type": "t_uint8"
      },
      {
        "astId": 418,
        "contract": "contracts/LPDepositor.sol:LPDepositor",
        "label": "_initializing",
        "offset": 1,
        "slot": "0",
        "type": "t_bool"
      },
      {
        "astId": 902,
        "contract": "contracts/LPDepositor.sol:LPDepositor",
        "label": "__gap",
        "offset": 0,
        "slot": "1",
        "type": "t_array(t_uint256)50_storage"
      },
      {
        "astId": 1121,
        "contract": "contracts/LPDepositor.sol:LPDepositor",
        "label": "__gap",
        "offset": 0,
        "slot": "51",
        "type": "t_array(t_uint256)50_storage"
      },
      {
        "astId": 39,
        "contract": "contracts/LPDepositor.sol:LPDepositor",
        "label": "_roles",
        "offset": 0,
        "slot": "101",
        "type": "t_mapping(t_bytes32,t_struct(RoleData)34_storage)"
      },
      {
        "astId": 334,
        "contract": "contracts/LPDepositor.sol:LPDepositor",
        "label": "__gap",
        "offset": 0,
        "slot": "102",
        "type": "t_array(t_uint256)49_storage"
      }
    ],
    "types": {
      "t_address": {
        "encoding": "inplace",
        "label": "address",
        "numberOfBytes": "20"
      },
      "t_array(t_uint256)49_storage": {
        "base": "t_uint256",
        "encoding": "inplace",
        "label": "uint256[49]",
        "numberOfBytes": "1568"
      },
      "t_array(t_uint256)50_storage": {
        "base": "t_uint256",
        "encoding": "inplace",
        "label": "uint256[50]",
        "numberOfBytes": "1600"
      },
      "t_bool": {
        "encoding": "inplace",
        "label": "bool",
        "numberOfBytes": "1"
      },
      "t_bytes32": {
        "encoding": "inplace",
        "label": "bytes32",
        "numberOfBytes": "32"
      },
      "t_mapping(t_address,t_bool)": {
        "encoding": "mapping",
        "key": "t_address",
        "label": "mapping(address => bool)",
        "numberOfBytes": "32",
        "value": "t_bool"
      },
      "t_mapping(t_bytes32,t_struct(RoleData)34_storage)": {
        "encoding": "mapping",
        "key": "t_bytes32",
        "label": "mapping(bytes32 => struct AccessControlUpgradeable.RoleData)",
        "numberOfBytes": "32",
        "value": "t_struct(RoleData)34_storage"
      },
      "t_struct(RoleData)34_storage": {
        "encoding": "inplace",
        "label": "struct AccessControlUpgradeable.RoleData",
        "members": [
          {
            "astId": 31,
            "contract": "contracts/LPDepositor.sol:LPDepositor",
            "label": "members",
            "offset": 0,
            "slot": "0",
            "type": "t_mapping(t_address,t_bool)"
          },
          {
            "astId": 33,
            "contract": "contracts/LPDepositor.sol:LPDepositor",
            "label": "adminRole",
            "offset": 0,
            "slot": "1",
            "type": "t_bytes32"
          }
        ],
        "numberOfBytes": "64"
      },
      "t_uint256": {
        "encoding": "inplace",
        "label": "uint256",
        "numberOfBytes": "32"
      },
      "t_uint8": {
        "encoding": "inplace",
        "label": "uint8",
        "numberOfBytes": "1"
      }
    }
  }
}