{
  "address": "0xa166023647dc4e81f4c8a267967a8DC2C2D5C5A8",
  "abi": [
    {
      "anonymous": false,
      "inputs": [
        {
          "indexed": false,
          "internalType": "uint8",
          "name": "version",
          "type": "uint8"
        }
      ],
      "name": "Initialized",
      "type": "event"
    },
    {
      "anonymous": false,
      "inputs": [
        {
          "indexed": true,
          "internalType": "bytes32",
          "name": "role",
          "type": "bytes32"
        },
        {
          "indexed": true,
          "internalType": "bytes32",
          "name": "previousAdminRole",
          "type": "bytes32"
        },
        {
          "indexed": true,
          "internalType": "bytes32",
          "name": "newAdminRole",
          "type": "bytes32"
        }
      ],
      "name": "RoleAdminChanged",
      "type": "event"
    },
    {
      "anonymous": false,
      "inputs": [
        {
          "indexed": true,
          "internalType": "bytes32",
          "name": "role",
          "type": "bytes32"
        },
        {
          "indexed": true,
          "internalType": "address",
          "name": "account",
          "type": "address"
        },
        {
          "indexed": true,
          "internalType": "address",
          "name": "sender",
          "type": "address"
        }
      ],
      "name": "RoleGranted",
      "type": "event"
    },
    {
      "anonymous": false,
      "inputs": [
        {
          "indexed": true,
          "internalType": "bytes32",
          "name": "role",
          "type": "bytes32"
        },
        {
          "indexed": true,
          "internalType": "address",
          "name": "account",
          "type": "address"
        },
        {
          "indexed": true,
          "internalType": "address",
          "name": "sender",
          "type": "address"
        }
      ],
      "name": "RoleRevoked",
      "type": "event"
    },
    {
      "inputs": [],
      "name": "DEFAULT_ADMIN_ROLE",
      "outputs": [
        {
          "internalType": "bytes32",
          "name": "",
          "type": "bytes32"
        }
      ],
      "stateMutability": "view",
      "type": "function"
    },
    {
      "inputs": [],
      "name": "DISTRIBUTOR_ROLE",
      "outputs": [
        {
          "internalType": "bytes32",
          "name": "",
          "type": "bytes32"
        }
      ],
      "stateMutability": "view",
      "type": "function"
    },
    {
      "inputs": [],
      "name": "OORouter",
      "outputs": [
        {
          "internalType": "address",
          "name": "",
          "type": "address"
        }
      ],
      "stateMutability": "view",
      "type": "function"
    },
    {
      "inputs": [],
      "name": "distributeLVC",
      "outputs": [],
      "stateMutability": "nonpayable",
      "type": "function"
    },
    {
      "inputs": [
        {
          "internalType": "contract IMarket",
          "name": "usdcMarket",
          "type": "address"
        },
        {
          "internalType": "uint56",
          "name": "usdcAmount",
          "type": "uint56"
        },
        {
          "internalType": "contract IMarket[]",
          "name": "markets",
          "type": "address[]"
        },
        {
          "internalType": "uint256[]",
          "name": "amounts",
          "type": "uint256[]"
        },
        {
          "internalType": "bytes[]",
          "name": "swapQuoteData",
          "type": "bytes[]"
        }
      ],
      "name": "distributeReserves",
      "outputs": [],
      "stateMutability": "nonpayable",
      "type": "function"
    },
    {
      "inputs": [
        {
          "internalType": "bytes32",
          "name": "role",
          "type": "bytes32"
        }
      ],
      "name": "getRoleAdmin",
      "outputs": [
        {
          "internalType": "bytes32",
          "name": "",
          "type": "bytes32"
        }
      ],
      "stateMutability": "view",
      "type": "function"
    },
    {
      "inputs": [
        {
          "internalType": "bytes32",
          "name": "role",
          "type": "bytes32"
        },
        {
          "internalType": "address",
          "name": "account",
          "type": "address"
        }
      ],
      "name": "grantRole",
      "outputs": [],
      "stateMutability": "nonpayable",
      "type": "function"
    },
    {
      "inputs": [
        {
          "internalType": "bytes32",
          "name": "role",
          "type": "bytes32"
        },
        {
          "internalType": "address",
          "name": "account",
          "type": "address"
        }
      ],
      "name": "hasRole",
      "outputs": [
        {
          "internalType": "bool",
          "name": "",
          "type": "bool"
        }
      ],
      "stateMutability": "view",
      "type": "function"
    },
    {
      "inputs": [],
      "name": "initialize",
      "outputs": [],
      "stateMutability": "nonpayable",
      "type": "function"
    },
    {
      "inputs": [],
      "name": "lgeDepositor",
      "outputs": [
        {
          "internalType": "address",
          "name": "",
          "type": "address"
        }
      ],
      "stateMutability": "view",
      "type": "function"
    },
    {
      "inputs": [],
      "name": "lvc",
      "outputs": [
        {
          "internalType": "address",
          "name": "",
          "type": "address"
        }
      ],
      "stateMutability": "view",
      "type": "function"
    },
    {
      "inputs": [],
      "name": "mendi",
      "outputs": [
        {
          "internalType": "address",
          "name": "",
          "type": "address"
        }
      ],
      "stateMutability": "view",
      "type": "function"
    },
    {
      "inputs": [
        {
          "internalType": "bytes32",
          "name": "role",
          "type": "bytes32"
        },
        {
          "internalType": "address",
          "name": "account",
          "type": "address"
        }
      ],
      "name": "renounceRole",
      "outputs": [],
      "stateMutability": "nonpayable",
      "type": "function"
    },
    {
      "inputs": [
        {
          "internalType": "bytes32",
          "name": "role",
          "type": "bytes32"
        },
        {
          "internalType": "address",
          "name": "account",
          "type": "address"
        }
      ],
      "name": "revokeRole",
      "outputs": [],
      "stateMutability": "nonpayable",
      "type": "function"
    },
    {
      "inputs": [],
      "name": "rewardManager",
      "outputs": [
        {
          "internalType": "address",
          "name": "",
          "type": "address"
        }
      ],
      "stateMutability": "view",
      "type": "function"
    },
    {
      "inputs": [
        {
          "internalType": "bytes4",
          "name": "interfaceId",
          "type": "bytes4"
        }
      ],
      "name": "supportsInterface",
      "outputs": [
        {
          "internalType": "bool",
          "name": "",
          "type": "bool"
        }
      ],
      "stateMutability": "view",
      "type": "function"
    },
    {
      "inputs": [],
      "name": "usdc",
      "outputs": [
        {
          "internalType": "address",
          "name": "",
          "type": "address"
        }
      ],
      "stateMutability": "view",
      "type": "function"
    }
  ],
  "transactionHash": "0xe3dcc6c036c700d2a1ed16cd74beff9c9144db25eec2b78ff722a47d219405c4",
  "args": [],
  "numDeployments": 3,
  "solcInputHash": "34d2ef8ddc58eba3c77b95b23b5cc7d1",
  "bytecode": "0x608060405234801561001057600080fd5b50611588806100206000396000f3fe608060405234801561001057600080fd5b506004361061010b5760003560e01c80636790dcd4116100a2578063a217fddf11610071578063a217fddf1461024b578063d547741f14610253578063db1e057814610266578063e33cfc8e14610281578063f0bd87cc1461029c57600080fd5b80636790dcd41461020d5780637f8d838f146102285780638129fc1c1461023057806391d148541461023857600080fd5b80632f2ff15d116100de5780632f2ff15d146101b157806336568abe146101c45780633e413bee146101d75780635f33f281146101f257600080fd5b806301ffc9a7146101105780630f4ef8a6146101385780631c11b6d51461016b578063248a9ca314610180575b600080fd5b61012361011e36600461115c565b6102c3565b60405190151581526020015b60405180910390f35b6101537304a716725e43f6618b11d280bfa12491d9ab7bd581565b6040516001600160a01b03909116815260200161012f565b61017e6101793660046111e7565b6102fa565b005b6101a361018e3660046112b2565b60009081526065602052604090206001015490565b60405190815260200161012f565b61017e6101bf3660046112cb565b6105d0565b61017e6101d23660046112cb565b6105fa565b61015373176211869ca2b568f2a7d4ee941e073a821ee1ff81565b6101537343e8809ea748eff3204ee01f08872f063e44065f81565b610153736352a56caadc4f1e25cd6c75970fa768a3304e6481565b61017e610678565b61017e61076e565b6101236102463660046112cb565b61088a565b6101a3600081565b61017e6102613660046112cb565b6108b5565b61015373cc22f6aa610d1b2a0e89ef228079cb3e1831b1d181565b610153738f1b13497326857011b0b9a2b066054e1849f14d81565b6101a37ffbd454f36a7e1a388bd6fc3ab10d434aa4578f811acbbcf33afb1c697486313c81565b60006001600160e01b03198216637965db0b60e01b14806102f457506301ffc9a760e01b6001600160e01b03198316145b92915050565b7ffbd454f36a7e1a388bd6fc3ab10d434aa4578f811acbbcf33afb1c697486313c610324816108da565b858414801561033257508582145b6103835760405162461bcd60e51b815260206004820152601d60248201527f526573657276654d616e616765723a20494e56414c49445f494e50555400000060448201526064015b60405180910390fd5b610396898966ffffffffffffff166108e4565b60005b86811015610503576103e98888838181106103b6576103b66112fb565b90506020020160208101906103cb9190611311565b8787848181106103dd576103dd6112fb565b905060200201356108e4565b60008888838181106103fd576103fd6112fb565b90506020020160208101906104129190611311565b6001600160a01b0316636f307dc36040518163ffffffff1660e01b8152600401602060405180830381865afa15801561044f573d6000803e3d6000fd5b505050506040513d601f19601f82011682018060405250810190610473919061132e565b90506104f08188888581811061048b5761048b6112fb565b905060200201358787868181106104a4576104a46112fb565b90506020028101906104b6919061134b565b8080601f016020809104026020016040519081016040528093929190818152602001838380828437600092019190915250610b2192505050565b50806104fb816113a8565b915050610399565b50600061052373176211869ca2b568f2a7d4ee941e073a821ee1ff610c20565b905061055873176211869ca2b568f2a7d4ee941e073a821ee1ff7304a716725e43f6618b11d280bfa12491d9ab7bd583610c8b565b60405163fc41aa0960e01b815260048101829052600060248201527304a716725e43f6618b11d280bfa12491d9ab7bd59063fc41aa0990604401600060405180830381600087803b1580156105ac57600080fd5b505af11580156105c0573d6000803e3d6000fd5b5050505050505050505050505050565b6000828152606560205260409020600101546105eb816108da565b6105f58383610d8e565b505050565b6001600160a01b038116331461066a5760405162461bcd60e51b815260206004820152602f60248201527f416363657373436f6e74726f6c3a2063616e206f6e6c792072656e6f756e636560448201526e103937b632b9903337b91039b2b63360891b606482015260840161037a565b6106748282610e14565b5050565b7ffbd454f36a7e1a388bd6fc3ab10d434aa4578f811acbbcf33afb1c697486313c6106a2816108da565b6106aa610e7b565b60006106c973cc22f6aa610d1b2a0e89ef228079cb3e1831b1d1610c20565b90506106fe73cc22f6aa610d1b2a0e89ef228079cb3e1831b1d17304a716725e43f6618b11d280bfa12491d9ab7bd583610c8b565b60405163fc41aa0960e01b815260006004820152602481018290527304a716725e43f6618b11d280bfa12491d9ab7bd59063fc41aa0990604401600060405180830381600087803b15801561075257600080fd5b505af1158015610766573d6000803e3d6000fd5b505050505050565b600054610100900460ff161580801561078e5750600054600160ff909116105b806107a85750303b1580156107a8575060005460ff166001145b61080b5760405162461bcd60e51b815260206004820152602e60248201527f496e697469616c697a61626c653a20636f6e747261637420697320616c72656160448201526d191e481a5b9a5d1a585b1a5e995960921b606482015260840161037a565b6000805460ff19166001179055801561082e576000805461ff0019166101001790555b610836610ee1565b610841600033610d8e565b8015610887576000805461ff0019169055604051600181527f7f26b83ff96e1f2b6a682f133852f6798a09c465da95921460cefb38474024989060200160405180910390a15b50565b60009182526065602090815260408084206001600160a01b0393909316845291905290205460ff1690565b6000828152606560205260409020600101546108d0816108da565b6105f58383610e14565b6108878133610f4e565b816001600160a01b031663a6afed956040518163ffffffff1660e01b81526004016020604051808303816000875af1158015610924573d6000803e3d6000fd5b505050506040513d601f19601f8201168201806040525081019061094891906113c3565b5080826001600160a01b0316633b1d21a26040518163ffffffff1660e01b8152600401602060405180830381865afa158015610988573d6000803e3d6000fd5b505050506040513d601f19601f820116820180604052508101906109ac91906113c3565b10156109fa5760405162461bcd60e51b815260206004820152601f60248201527f526573657276654d616e616765723a204e4f545f454e4f5547485f4341534800604482015260640161037a565b80826001600160a01b0316638f840ddd6040518163ffffffff1660e01b8152600401602060405180830381865afa158015610a39573d6000803e3d6000fd5b505050506040513d601f19601f82011682018060405250810190610a5d91906113c3565b1015610ab65760405162461bcd60e51b815260206004820152602260248201527f526573657276654d616e616765723a204e4f545f454e4f5547485f5245534552604482015261564560f01b606482015260840161037a565b60405163601a0bf160e01b8152600481018290526001600160a01b0383169063601a0bf1906024016020604051808303816000875af1158015610afd573d6000803e3d6000fd5b505050506040513d601f19601f820116820180604052508101906105f591906113c3565b610b496001600160a01b038416736352a56caadc4f1e25cd6c75970fa768a3304e6484610c8b565b600080736352a56caadc4f1e25cd6c75970fa768a3304e646001600160a01b0316600084604051610b7a9190611408565b60006040518083038185875af1925050503d8060008114610bb7576040519150601f19603f3d011682016040523d82523d6000602084013e610bbc565b606091505b509150915081610c195760405162461bcd60e51b815260206004820152602260248201527f526573657276654d616e616765723a204f4f5f4150495f535741505f4641494c604482015261115160f21b606482015260840161037a565b5050505050565b6040516370a0823160e01b81523060048201526000906001600160a01b038316906370a0823190602401602060405180830381865afa158015610c67573d6000803e3d6000fd5b505050506040513d601f19601f820116820180604052508101906102f491906113c3565b604080516001600160a01b038481166024830152604480830185905283518084039091018152606490920183526020820180516001600160e01b031663095ea7b360e01b1790529151600092839290871691610ce79190611408565b6000604051808303816000865af19150503d8060008114610d24576040519150601f19603f3d011682016040523d82523d6000602084013e610d29565b606091505b5091509150818015610d53575080511580610d53575080806020019051810190610d539190611424565b610c195760405162461bcd60e51b815260206004820152600c60248201526b2173616665417070726f766560a01b604482015260640161037a565b610d98828261088a565b6106745760008281526065602090815260408083206001600160a01b03851684529091529020805460ff19166001179055610dd03390565b6001600160a01b0316816001600160a01b0316837f2f8788117e7eff1d82e926ec794901d17c78024a50270940304540a733656f0d60405160405180910390a45050565b610e1e828261088a565b156106745760008281526065602090815260408083206001600160a01b0385168085529252808320805460ff1916905551339285917ff6391f5c32d9c69d2a47ea670b442974b53935d1edc7fd64eb21e047a839171b9190a45050565b60405163072e008f60e11b8152306004820152738f1b13497326857011b0b9a2b066054e1849f14d90630e5c011e90602401600060405180830381600087803b158015610ec757600080fd5b505af1158015610edb573d6000803e3d6000fd5b50505050565b600054610100900460ff16610f4c5760405162461bcd60e51b815260206004820152602b60248201527f496e697469616c697a61626c653a20636f6e7472616374206973206e6f74206960448201526a6e697469616c697a696e6760a81b606482015260840161037a565b565b610f58828261088a565b61067457610f6581610fa7565b610f70836020610fb9565b604051602001610f81929190611446565b60408051601f198184030181529082905262461bcd60e51b825261037a916004016114bb565b60606102f46001600160a01b03831660145b60606000610fc88360026114ee565b610fd390600261150d565b67ffffffffffffffff811115610feb57610feb611525565b6040519080825280601f01601f191660200182016040528015611015576020820181803683370190505b509050600360fc1b81600081518110611030576110306112fb565b60200101906001600160f81b031916908160001a905350600f60fb1b8160018151811061105f5761105f6112fb565b60200101906001600160f81b031916908160001a90535060006110838460026114ee565b61108e90600161150d565b90505b6001811115611106576f181899199a1a9b1b9c1cb0b131b232b360811b85600f16601081106110c2576110c26112fb565b1a60f81b8282815181106110d8576110d86112fb565b60200101906001600160f81b031916908160001a90535060049490941c936110ff8161153b565b9050611091565b5083156111555760405162461bcd60e51b815260206004820181905260248201527f537472696e67733a20686578206c656e67746820696e73756666696369656e74604482015260640161037a565b9392505050565b60006020828403121561116e57600080fd5b81356001600160e01b03198116811461115557600080fd5b6001600160a01b038116811461088757600080fd5b60008083601f8401126111ad57600080fd5b50813567ffffffffffffffff8111156111c557600080fd5b6020830191508360208260051b85010111156111e057600080fd5b9250929050565b60008060008060008060008060a0898b03121561120357600080fd5b883561120e81611186565b9750602089013566ffffffffffffff8116811461122a57600080fd5b9650604089013567ffffffffffffffff8082111561124757600080fd5b6112538c838d0161119b565b909850965060608b013591508082111561126c57600080fd5b6112788c838d0161119b565b909650945060808b013591508082111561129157600080fd5b5061129e8b828c0161119b565b999c989b5096995094979396929594505050565b6000602082840312156112c457600080fd5b5035919050565b600080604083850312156112de57600080fd5b8235915060208301356112f081611186565b809150509250929050565b634e487b7160e01b600052603260045260246000fd5b60006020828403121561132357600080fd5b813561115581611186565b60006020828403121561134057600080fd5b815161115581611186565b6000808335601e1984360301811261136257600080fd5b83018035915067ffffffffffffffff82111561137d57600080fd5b6020019150368190038213156111e057600080fd5b634e487b7160e01b600052601160045260246000fd5b60006000198214156113bc576113bc611392565b5060010190565b6000602082840312156113d557600080fd5b5051919050565b60005b838110156113f75781810151838201526020016113df565b83811115610edb5750506000910152565b6000825161141a8184602087016113dc565b9190910192915050565b60006020828403121561143657600080fd5b8151801515811461115557600080fd5b7f416363657373436f6e74726f6c3a206163636f756e742000000000000000000081526000835161147e8160178501602088016113dc565b7001034b99036b4b9b9b4b733903937b6329607d1b60179184019182015283516114af8160288401602088016113dc565b01602801949350505050565b60208152600082518060208401526114da8160408501602087016113dc565b601f01601f19169190910160400192915050565b600081600019048311821515161561150857611508611392565b500290565b6000821982111561152057611520611392565b500190565b634e487b7160e01b600052604160045260246000fd5b60008161154a5761154a611392565b50600019019056fea26469706673582212207c2594cbb6278007b03622583b2bb42d18a515ab034c2c7f500ddae9bbfe19b864736f6c634300080a0033",
  "devdoc": {
    "kind": "dev",
    "methods": {
      "getRoleAdmin(bytes32)": {
        "details": "Returns the admin role that controls `role`. See {grantRole} and {revokeRole}. To change a role's admin, use {_setRoleAdmin}."
      },
      "grantRole(bytes32,address)": {
        "details": "Grants `role` to `account`. If `account` had not been already granted `role`, emits a {RoleGranted} event. Requirements: - the caller must have ``role``'s admin role. May emit a {RoleGranted} event."
      },
      "hasRole(bytes32,address)": {
        "details": "Returns `true` if `account` has been granted `role`."
      },
      "renounceRole(bytes32,address)": {
        "details": "Revokes `role` from the calling account. Roles are often managed via {grantRole} and {revokeRole}: this function's purpose is to provide a mechanism for accounts to lose their privileges if they are compromised (such as when a trusted device is misplaced). If the calling account had been revoked `role`, emits a {RoleRevoked} event. Requirements: - the caller must be `account`. May emit a {RoleRevoked} event."
      },
      "revokeRole(bytes32,address)": {
        "details": "Revokes `role` from `account`. If `account` had been granted `role`, emits a {RoleRevoked} event. Requirements: - the caller must have ``role``'s admin role. May emit a {RoleRevoked} event."
      },
      "supportsInterface(bytes4)": {
        "details": "See {IERC165-supportsInterface}."
      }
    },
    "version": 1
  },
  "userdoc": {
    "kind": "user",
    "methods": {},
    "version": 1
  },
  "storageLayout": {
    "storage": [
      {
        "astId": 415,
        "contract": "contracts/ReserveManager.sol:ReserveManager",
        "label": "_initialized",
        "offset": 0,
        "slot": "0",
        "type": "t_uint8"
      },
      {
        "astId": 418,
        "contract": "contracts/ReserveManager.sol:ReserveManager",
        "label": "_initializing",
        "offset": 1,
        "slot": "0",
        "type": "t_bool"
      },
      {
        "astId": 902,
        "contract": "contracts/ReserveManager.sol:ReserveManager",
        "label": "__gap",
        "offset": 0,
        "slot": "1",
        "type": "t_array(t_uint256)50_storage"
      },
      {
        "astId": 1121,
        "contract": "contracts/ReserveManager.sol:ReserveManager",
        "label": "__gap",
        "offset": 0,
        "slot": "51",
        "type": "t_array(t_uint256)50_storage"
      },
      {
        "astId": 39,
        "contract": "contracts/ReserveManager.sol:ReserveManager",
        "label": "_roles",
        "offset": 0,
        "slot": "101",
        "type": "t_mapping(t_bytes32,t_struct(RoleData)34_storage)"
      },
      {
        "astId": 334,
        "contract": "contracts/ReserveManager.sol:ReserveManager",
        "label": "__gap",
        "offset": 0,
        "slot": "102",
        "type": "t_array(t_uint256)49_storage"
      }
    ],
    "types": {
      "t_address": {
        "encoding": "inplace",
        "label": "address",
        "numberOfBytes": "20"
      },
      "t_array(t_uint256)49_storage": {
        "base": "t_uint256",
        "encoding": "inplace",
        "label": "uint256[49]",
        "numberOfBytes": "1568"
      },
      "t_array(t_uint256)50_storage": {
        "base": "t_uint256",
        "encoding": "inplace",
        "label": "uint256[50]",
        "numberOfBytes": "1600"
      },
      "t_bool": {
        "encoding": "inplace",
        "label": "bool",
        "numberOfBytes": "1"
      },
      "t_bytes32": {
        "encoding": "inplace",
        "label": "bytes32",
        "numberOfBytes": "32"
      },
      "t_mapping(t_address,t_bool)": {
        "encoding": "mapping",
        "key": "t_address",
        "label": "mapping(address => bool)",
        "numberOfBytes": "32",
        "value": "t_bool"
      },
      "t_mapping(t_bytes32,t_struct(RoleData)34_storage)": {
        "encoding": "mapping",
        "key": "t_bytes32",
        "label": "mapping(bytes32 => struct AccessControlUpgradeable.RoleData)",
        "numberOfBytes": "32",
        "value": "t_struct(RoleData)34_storage"
      },
      "t_struct(RoleData)34_storage": {
        "encoding": "inplace",
        "label": "struct AccessControlUpgradeable.RoleData",
        "members": [
          {
            "astId": 31,
            "contract": "contracts/ReserveManager.sol:ReserveManager",
            "label": "members",
            "offset": 0,
            "slot": "0",
            "type": "t_mapping(t_address,t_bool)"
          },
          {
            "astId": 33,
            "contract": "contracts/ReserveManager.sol:ReserveManager",
            "label": "adminRole",
            "offset": 0,
            "slot": "1",
            "type": "t_bytes32"
          }
        ],
        "numberOfBytes": "64"
      },
      "t_uint256": {
        "encoding": "inplace",
        "label": "uint256",
        "numberOfBytes": "32"
      },
      "t_uint8": {
        "encoding": "inplace",
        "label": "uint8",
        "numberOfBytes": "1"
      }
    }
  }
}