{
  "address": "0x9a71e980A2f27888319C580e86E3DF15172b751F",
  "abi": [
    {
      "anonymous": false,
      "inputs": [
        {
          "indexed": false,
          "internalType": "uint8",
          "name": "version",
          "type": "uint8"
        }
      ],
      "name": "Initialized",
      "type": "event"
    },
    {
      "anonymous": false,
      "inputs": [
        {
          "indexed": true,
          "internalType": "bytes32",
          "name": "role",
          "type": "bytes32"
        },
        {
          "indexed": true,
          "internalType": "bytes32",
          "name": "previousAdminRole",
          "type": "bytes32"
        },
        {
          "indexed": true,
          "internalType": "bytes32",
          "name": "newAdminRole",
          "type": "bytes32"
        }
      ],
      "name": "RoleAdminChanged",
      "type": "event"
    },
    {
      "anonymous": false,
      "inputs": [
        {
          "indexed": true,
          "internalType": "bytes32",
          "name": "role",
          "type": "bytes32"
        },
        {
          "indexed": true,
          "internalType": "address",
          "name": "account",
          "type": "address"
        },
        {
          "indexed": true,
          "internalType": "address",
          "name": "sender",
          "type": "address"
        }
      ],
      "name": "RoleGranted",
      "type": "event"
    },
    {
      "anonymous": false,
      "inputs": [
        {
          "indexed": true,
          "internalType": "bytes32",
          "name": "role",
          "type": "bytes32"
        },
        {
          "indexed": true,
          "internalType": "address",
          "name": "account",
          "type": "address"
        },
        {
          "indexed": true,
          "internalType": "address",
          "name": "sender",
          "type": "address"
        }
      ],
      "name": "RoleRevoked",
      "type": "event"
    },
    {
      "inputs": [],
      "name": "DEFAULT_ADMIN_ROLE",
      "outputs": [
        {
          "internalType": "bytes32",
          "name": "",
          "type": "bytes32"
        }
      ],
      "stateMutability": "view",
      "type": "function"
    },
    {
      "inputs": [],
      "name": "DISTRIBUTOR_ROLE",
      "outputs": [
        {
          "internalType": "bytes32",
          "name": "",
          "type": "bytes32"
        }
      ],
      "stateMutability": "view",
      "type": "function"
    },
    {
      "inputs": [],
      "name": "KyberRouter",
      "outputs": [
        {
          "internalType": "address",
          "name": "",
          "type": "address"
        }
      ],
      "stateMutability": "view",
      "type": "function"
    },
    {
      "inputs": [],
      "name": "distributeOLYNX",
      "outputs": [],
      "stateMutability": "nonpayable",
      "type": "function"
    },
    {
      "inputs": [
        {
          "internalType": "contract IMarket",
          "name": "usdcMarket",
          "type": "address"
        },
        {
          "internalType": "uint56",
          "name": "usdcAmount",
          "type": "uint56"
        },
        {
          "internalType": "contract IMarket[]",
          "name": "markets",
          "type": "address[]"
        },
        {
          "internalType": "uint256[]",
          "name": "amounts",
          "type": "uint256[]"
        },
        {
          "internalType": "bytes[]",
          "name": "swapQuoteData",
          "type": "bytes[]"
        }
      ],
      "name": "distributeReserves",
      "outputs": [],
      "stateMutability": "nonpayable",
      "type": "function"
    },
    {
      "inputs": [
        {
          "internalType": "bytes32",
          "name": "role",
          "type": "bytes32"
        }
      ],
      "name": "getRoleAdmin",
      "outputs": [
        {
          "internalType": "bytes32",
          "name": "",
          "type": "bytes32"
        }
      ],
      "stateMutability": "view",
      "type": "function"
    },
    {
      "inputs": [
        {
          "internalType": "bytes32",
          "name": "role",
          "type": "bytes32"
        },
        {
          "internalType": "address",
          "name": "account",
          "type": "address"
        }
      ],
      "name": "grantRole",
      "outputs": [],
      "stateMutability": "nonpayable",
      "type": "function"
    },
    {
      "inputs": [
        {
          "internalType": "bytes32",
          "name": "role",
          "type": "bytes32"
        },
        {
          "internalType": "address",
          "name": "account",
          "type": "address"
        }
      ],
      "name": "hasRole",
      "outputs": [
        {
          "internalType": "bool",
          "name": "",
          "type": "bool"
        }
      ],
      "stateMutability": "view",
      "type": "function"
    },
    {
      "inputs": [],
      "name": "initialize",
      "outputs": [],
      "stateMutability": "nonpayable",
      "type": "function"
    },
    {
      "inputs": [],
      "name": "lpDepositor",
      "outputs": [
        {
          "internalType": "address",
          "name": "",
          "type": "address"
        }
      ],
      "stateMutability": "view",
      "type": "function"
    },
    {
      "inputs": [],
      "name": "mendi",
      "outputs": [
        {
          "internalType": "address",
          "name": "",
          "type": "address"
        }
      ],
      "stateMutability": "view",
      "type": "function"
    },
    {
      "inputs": [],
      "name": "olynx",
      "outputs": [
        {
          "internalType": "address",
          "name": "",
          "type": "address"
        }
      ],
      "stateMutability": "view",
      "type": "function"
    },
    {
      "inputs": [],
      "name": "pair",
      "outputs": [
        {
          "internalType": "address",
          "name": "",
          "type": "address"
        }
      ],
      "stateMutability": "view",
      "type": "function"
    },
    {
      "inputs": [
        {
          "internalType": "bytes32",
          "name": "role",
          "type": "bytes32"
        },
        {
          "internalType": "address",
          "name": "account",
          "type": "address"
        }
      ],
      "name": "renounceRole",
      "outputs": [],
      "stateMutability": "nonpayable",
      "type": "function"
    },
    {
      "inputs": [
        {
          "internalType": "bytes32",
          "name": "role",
          "type": "bytes32"
        },
        {
          "internalType": "address",
          "name": "account",
          "type": "address"
        }
      ],
      "name": "revokeRole",
      "outputs": [],
      "stateMutability": "nonpayable",
      "type": "function"
    },
    {
      "inputs": [],
      "name": "rewardManager",
      "outputs": [
        {
          "internalType": "address",
          "name": "",
          "type": "address"
        }
      ],
      "stateMutability": "view",
      "type": "function"
    },
    {
      "inputs": [
        {
          "internalType": "bytes4",
          "name": "interfaceId",
          "type": "bytes4"
        }
      ],
      "name": "supportsInterface",
      "outputs": [
        {
          "internalType": "bool",
          "name": "",
          "type": "bool"
        }
      ],
      "stateMutability": "view",
      "type": "function"
    },
    {
      "inputs": [],
      "name": "usdc",
      "outputs": [
        {
          "internalType": "address",
          "name": "",
          "type": "address"
        }
      ],
      "stateMutability": "view",
      "type": "function"
    }
  ],
  "transactionHash": "0x51003d88922b136d0e55a73c7a4cbe4ce0987ea72c4318bbf9a77f0282caf683",
  "args": [],
  "numDeployments": 4,
  "solcInputHash": "a20b74d1d6f4912c177dd1fa9861710c",
  "bytecode": "0x608060405234801561001057600080fd5b50611656806100206000396000f3fe608060405234801561001057600080fd5b50600436106101165760003560e01c8063517f97d7116100a257806391d148541161007157806391d1485414610279578063a217fddf1461028c578063a8aa1b3114610294578063d547741f146102af578063f0bd87cc146102c257600080fd5b8063517f97d7146102335780635f33f2811461023b578063655c23c2146102565780638129fc1c1461027157600080fd5b80631c11b6d5116100e95780631c11b6d5146101ac578063248a9ca3146101c15780632f2ff15d146101f257806336568abe146102055780633e413bee1461021857600080fd5b806301ffc9a71461011b57806302f283be146101435780630c1f2eed146101765780630f4ef8a614610191575b600080fd5b61012e61012936600461122a565b6102e9565b60405190151581526020015b60405180910390f35b61015e73c321e5eba8480adcc122fa90cf63557c0d29ce6881565b6040516001600160a01b03909116815260200161013a565b61015e736131b5fae19ea4f9d964eac0408e4408b66337b581565b61015e7304a716725e43f6618b11d280bfa12491d9ab7bd581565b6101bf6101ba3660046112b5565b610320565b005b6101e46101cf366004611380565b60009081526065602052604090206001015490565b60405190815260200161013a565b6101bf610200366004611399565b61068f565b6101bf610213366004611399565b6106b9565b61015e73176211869ca2b568f2a7d4ee941e073a821ee1ff81565b6101bf610737565b61015e7343e8809ea748eff3204ee01f08872f063e44065f81565b61015e7363349ba5e1f71252ecd56e8f950d1a518b400b6081565b6101bf61082d565b61012e610287366004611399565b610949565b6101e4600081565b61015e73e5e19bbf39c76a8c980b48f2ec89d0de877bf56781565b6101bf6102bd366004611399565b610974565b6101e47ffbd454f36a7e1a388bd6fc3ab10d434aa4578f811acbbcf33afb1c697486313c81565b60006001600160e01b03198216637965db0b60e01b148061031a57506301ffc9a760e01b6001600160e01b03198316145b92915050565b7ffbd454f36a7e1a388bd6fc3ab10d434aa4578f811acbbcf33afb1c697486313c61034a81610999565b858414801561035857508582145b6103a95760405162461bcd60e51b815260206004820152601d60248201527f526573657276654d616e616765723a20494e56414c49445f494e50555400000060448201526064015b60405180910390fd5b6103bc898966ffffffffffffff166109a3565b60005b868110156105c257308888838181106103da576103da6113c9565b90506020020160208101906103ef91906113df565b6001600160a01b0316630d983cc66040518163ffffffff1660e01b8152600401602060405180830381865afa15801561042c573d6000803e3d6000fd5b505050506040513d601f19601f8201168201806040525081019061045091906113fc565b6001600160a01b031614156105b0576104a7888883818110610474576104746113c9565b905060200201602081019061048991906113df565b87878481811061049b5761049b6113c9565b905060200201356109a3565b60008888838181106104bb576104bb6113c9565b90506020020160208101906104d091906113df565b6001600160a01b0316636f307dc36040518163ffffffff1660e01b8152600401602060405180830381865afa15801561050d573d6000803e3d6000fd5b505050506040513d601f19601f8201168201806040525081019061053191906113fc565b90506105ae81888885818110610549576105496113c9565b90506020020135878786818110610562576105626113c9565b90506020028101906105749190611419565b8080601f016020809104026020016040519081016040528093929190818152602001838380828437600092019190915250610be092505050565b505b806105ba81611476565b9150506103bf565b5060006105e273176211869ca2b568f2a7d4ee941e073a821ee1ff610cd4565b905061061773176211869ca2b568f2a7d4ee941e073a821ee1ff7304a716725e43f6618b11d280bfa12491d9ab7bd583610d3f565b60405163fc41aa0960e01b815260048101829052600060248201527304a716725e43f6618b11d280bfa12491d9ab7bd59063fc41aa0990604401600060405180830381600087803b15801561066b57600080fd5b505af115801561067f573d6000803e3d6000fd5b5050505050505050505050505050565b6000828152606560205260409020600101546106aa81610999565b6106b48383610e42565b505050565b6001600160a01b03811633146107295760405162461bcd60e51b815260206004820152602f60248201527f416363657373436f6e74726f6c3a2063616e206f6e6c792072656e6f756e636560448201526e103937b632b9903337b91039b2b63360891b60648201526084016103a0565b6107338282610ec8565b5050565b7ffbd454f36a7e1a388bd6fc3ab10d434aa4578f811acbbcf33afb1c697486313c61076181610999565b610769610f2f565b60006107887363349ba5e1f71252ecd56e8f950d1a518b400b60610cd4565b90506107bd7363349ba5e1f71252ecd56e8f950d1a518b400b607304a716725e43f6618b11d280bfa12491d9ab7bd583610d3f565b60405163fc41aa0960e01b815260006004820152602481018290527304a716725e43f6618b11d280bfa12491d9ab7bd59063fc41aa0990604401600060405180830381600087803b15801561081157600080fd5b505af1158015610825573d6000803e3d6000fd5b505050505050565b600054610100900460ff161580801561084d5750600054600160ff909116105b806108675750303b158015610867575060005460ff166001145b6108ca5760405162461bcd60e51b815260206004820152602e60248201527f496e697469616c697a61626c653a20636f6e747261637420697320616c72656160448201526d191e481a5b9a5d1a585b1a5e995960921b60648201526084016103a0565b6000805460ff1916600117905580156108ed576000805461ff0019166101001790555b6108f5610faf565b610900600033610e42565b8015610946576000805461ff0019169055604051600181527f7f26b83ff96e1f2b6a682f133852f6798a09c465da95921460cefb38474024989060200160405180910390a15b50565b60009182526065602090815260408084206001600160a01b0393909316845291905290205460ff1690565b60008281526065602052604090206001015461098f81610999565b6106b48383610ec8565b610946813361101c565b816001600160a01b031663a6afed956040518163ffffffff1660e01b81526004016020604051808303816000875af11580156109e3573d6000803e3d6000fd5b505050506040513d601f19601f82011682018060405250810190610a079190611491565b5080826001600160a01b0316633b1d21a26040518163ffffffff1660e01b8152600401602060405180830381865afa158015610a47573d6000803e3d6000fd5b505050506040513d601f19601f82011682018060405250810190610a6b9190611491565b1015610ab95760405162461bcd60e51b815260206004820152601f60248201527f526573657276654d616e616765723a204e4f545f454e4f5547485f434153480060448201526064016103a0565b80826001600160a01b0316638f840ddd6040518163ffffffff1660e01b8152600401602060405180830381865afa158015610af8573d6000803e3d6000fd5b505050506040513d601f19601f82011682018060405250810190610b1c9190611491565b1015610b755760405162461bcd60e51b815260206004820152602260248201527f526573657276654d616e616765723a204e4f545f454e4f5547485f5245534552604482015261564560f01b60648201526084016103a0565b60405163601a0bf160e01b8152600481018290526001600160a01b0383169063601a0bf1906024016020604051808303816000875af1158015610bbc573d6000803e3d6000fd5b505050506040513d601f19601f820116820180604052508101906106b49190611491565b610c086001600160a01b038416736131b5fae19ea4f9d964eac0408e4408b66337b584610d3f565b600080736131b5fae19ea4f9d964eac0408e4408b66337b56001600160a01b0316600084604051610c3991906114d6565b60006040518083038185875af1925050503d8060008114610c76576040519150601f19603f3d011682016040523d82523d6000602084013e610c7b565b606091505b509150915081610ccd5760405162461bcd60e51b815260206004820152601b60248201527f526573657276654d616e616765723a20535741505f4641494c4544000000000060448201526064016103a0565b5050505050565b6040516370a0823160e01b81523060048201526000906001600160a01b038316906370a0823190602401602060405180830381865afa158015610d1b573d6000803e3d6000fd5b505050506040513d601f19601f8201168201806040525081019061031a9190611491565b604080516001600160a01b038481166024830152604480830185905283518084039091018152606490920183526020820180516001600160e01b031663095ea7b360e01b1790529151600092839290871691610d9b91906114d6565b6000604051808303816000865af19150503d8060008114610dd8576040519150601f19603f3d011682016040523d82523d6000602084013e610ddd565b606091505b5091509150818015610e07575080511580610e07575080806020019051810190610e0791906114f2565b610ccd5760405162461bcd60e51b815260206004820152600c60248201526b2173616665417070726f766560a01b60448201526064016103a0565b610e4c8282610949565b6107335760008281526065602090815260408083206001600160a01b03851684529091529020805460ff19166001179055610e843390565b6001600160a01b0316816001600160a01b0316837f2f8788117e7eff1d82e926ec794901d17c78024a50270940304540a733656f0d60405160405180910390a45050565b610ed28282610949565b156107335760008281526065602090815260408083206001600160a01b0385168085529252808320805460ff1916905551339285917ff6391f5c32d9c69d2a47ea670b442974b53935d1edc7fd64eb21e047a839171b9190a45050565b6040516366cc185760e01b815273e5e19bbf39c76a8c980b48f2ec89d0de877bf567600482015230602482015273c321e5eba8480adcc122fa90cf63557c0d29ce68906366cc185790604401600060405180830381600087803b158015610f9557600080fd5b505af1158015610fa9573d6000803e3d6000fd5b50505050565b600054610100900460ff1661101a5760405162461bcd60e51b815260206004820152602b60248201527f496e697469616c697a61626c653a20636f6e7472616374206973206e6f74206960448201526a6e697469616c697a696e6760a81b60648201526084016103a0565b565b6110268282610949565b6107335761103381611075565b61103e836020611087565b60405160200161104f929190611514565b60408051601f198184030181529082905262461bcd60e51b82526103a091600401611589565b606061031a6001600160a01b03831660145b606060006110968360026115bc565b6110a19060026115db565b67ffffffffffffffff8111156110b9576110b96115f3565b6040519080825280601f01601f1916602001820160405280156110e3576020820181803683370190505b509050600360fc1b816000815181106110fe576110fe6113c9565b60200101906001600160f81b031916908160001a905350600f60fb1b8160018151811061112d5761112d6113c9565b60200101906001600160f81b031916908160001a90535060006111518460026115bc565b61115c9060016115db565b90505b60018111156111d4576f181899199a1a9b1b9c1cb0b131b232b360811b85600f1660108110611190576111906113c9565b1a60f81b8282815181106111a6576111a66113c9565b60200101906001600160f81b031916908160001a90535060049490941c936111cd81611609565b905061115f565b5083156112235760405162461bcd60e51b815260206004820181905260248201527f537472696e67733a20686578206c656e67746820696e73756666696369656e7460448201526064016103a0565b9392505050565b60006020828403121561123c57600080fd5b81356001600160e01b03198116811461122357600080fd5b6001600160a01b038116811461094657600080fd5b60008083601f84011261127b57600080fd5b50813567ffffffffffffffff81111561129357600080fd5b6020830191508360208260051b85010111156112ae57600080fd5b9250929050565b60008060008060008060008060a0898b0312156112d157600080fd5b88356112dc81611254565b9750602089013566ffffffffffffff811681146112f857600080fd5b9650604089013567ffffffffffffffff8082111561131557600080fd5b6113218c838d01611269565b909850965060608b013591508082111561133a57600080fd5b6113468c838d01611269565b909650945060808b013591508082111561135f57600080fd5b5061136c8b828c01611269565b999c989b5096995094979396929594505050565b60006020828403121561139257600080fd5b5035919050565b600080604083850312156113ac57600080fd5b8235915060208301356113be81611254565b809150509250929050565b634e487b7160e01b600052603260045260246000fd5b6000602082840312156113f157600080fd5b813561122381611254565b60006020828403121561140e57600080fd5b815161122381611254565b6000808335601e1984360301811261143057600080fd5b83018035915067ffffffffffffffff82111561144b57600080fd5b6020019150368190038213156112ae57600080fd5b634e487b7160e01b600052601160045260246000fd5b600060001982141561148a5761148a611460565b5060010190565b6000602082840312156114a357600080fd5b5051919050565b60005b838110156114c55781810151838201526020016114ad565b83811115610fa95750506000910152565b600082516114e88184602087016114aa565b9190910192915050565b60006020828403121561150457600080fd5b8151801515811461122357600080fd5b7f416363657373436f6e74726f6c3a206163636f756e742000000000000000000081526000835161154c8160178501602088016114aa565b7001034b99036b4b9b9b4b733903937b6329607d1b601791840191820152835161157d8160288401602088016114aa565b01602801949350505050565b60208152600082518060208401526115a88160408501602087016114aa565b601f01601f19169190910160400192915050565b60008160001904831182151516156115d6576115d6611460565b500290565b600082198211156115ee576115ee611460565b500190565b634e487b7160e01b600052604160045260246000fd5b60008161161857611618611460565b50600019019056fea264697066735822122044989db842c60d2c5d9ce34aa726912f9c05e986ee55ae6adf79c53fcb7fd30064736f6c634300080a0033",
  "devdoc": {
    "kind": "dev",
    "methods": {
      "getRoleAdmin(bytes32)": {
        "details": "Returns the admin role that controls `role`. See {grantRole} and {revokeRole}. To change a role's admin, use {_setRoleAdmin}."
      },
      "grantRole(bytes32,address)": {
        "details": "Grants `role` to `account`. If `account` had not been already granted `role`, emits a {RoleGranted} event. Requirements: - the caller must have ``role``'s admin role. May emit a {RoleGranted} event."
      },
      "hasRole(bytes32,address)": {
        "details": "Returns `true` if `account` has been granted `role`."
      },
      "renounceRole(bytes32,address)": {
        "details": "Revokes `role` from the calling account. Roles are often managed via {grantRole} and {revokeRole}: this function's purpose is to provide a mechanism for accounts to lose their privileges if they are compromised (such as when a trusted device is misplaced). If the calling account had been revoked `role`, emits a {RoleRevoked} event. Requirements: - the caller must be `account`. May emit a {RoleRevoked} event."
      },
      "revokeRole(bytes32,address)": {
        "details": "Revokes `role` from `account`. If `account` had been granted `role`, emits a {RoleRevoked} event. Requirements: - the caller must have ``role``'s admin role. May emit a {RoleRevoked} event."
      },
      "supportsInterface(bytes4)": {
        "details": "See {IERC165-supportsInterface}."
      }
    },
    "version": 1
  },
  "userdoc": {
    "kind": "user",
    "methods": {},
    "version": 1
  },
  "storageLayout": {
    "storage": [
      {
        "astId": 415,
        "contract": "contracts/ReserveManagerV2.sol:ReserveManagerV2",
        "label": "_initialized",
        "offset": 0,
        "slot": "0",
        "type": "t_uint8"
      },
      {
        "astId": 418,
        "contract": "contracts/ReserveManagerV2.sol:ReserveManagerV2",
        "label": "_initializing",
        "offset": 1,
        "slot": "0",
        "type": "t_bool"
      },
      {
        "astId": 902,
        "contract": "contracts/ReserveManagerV2.sol:ReserveManagerV2",
        "label": "__gap",
        "offset": 0,
        "slot": "1",
        "type": "t_array(t_uint256)50_storage"
      },
      {
        "astId": 1121,
        "contract": "contracts/ReserveManagerV2.sol:ReserveManagerV2",
        "label": "__gap",
        "offset": 0,
        "slot": "51",
        "type": "t_array(t_uint256)50_storage"
      },
      {
        "astId": 39,
        "contract": "contracts/ReserveManagerV2.sol:ReserveManagerV2",
        "label": "_roles",
        "offset": 0,
        "slot": "101",
        "type": "t_mapping(t_bytes32,t_struct(RoleData)34_storage)"
      },
      {
        "astId": 334,
        "contract": "contracts/ReserveManagerV2.sol:ReserveManagerV2",
        "label": "__gap",
        "offset": 0,
        "slot": "102",
        "type": "t_array(t_uint256)49_storage"
      }
    ],
    "types": {
      "t_address": {
        "encoding": "inplace",
        "label": "address",
        "numberOfBytes": "20"
      },
      "t_array(t_uint256)49_storage": {
        "base": "t_uint256",
        "encoding": "inplace",
        "label": "uint256[49]",
        "numberOfBytes": "1568"
      },
      "t_array(t_uint256)50_storage": {
        "base": "t_uint256",
        "encoding": "inplace",
        "label": "uint256[50]",
        "numberOfBytes": "1600"
      },
      "t_bool": {
        "encoding": "inplace",
        "label": "bool",
        "numberOfBytes": "1"
      },
      "t_bytes32": {
        "encoding": "inplace",
        "label": "bytes32",
        "numberOfBytes": "32"
      },
      "t_mapping(t_address,t_bool)": {
        "encoding": "mapping",
        "key": "t_address",
        "label": "mapping(address => bool)",
        "numberOfBytes": "32",
        "value": "t_bool"
      },
      "t_mapping(t_bytes32,t_struct(RoleData)34_storage)": {
        "encoding": "mapping",
        "key": "t_bytes32",
        "label": "mapping(bytes32 => struct AccessControlUpgradeable.RoleData)",
        "numberOfBytes": "32",
        "value": "t_struct(RoleData)34_storage"
      },
      "t_struct(RoleData)34_storage": {
        "encoding": "inplace",
        "label": "struct AccessControlUpgradeable.RoleData",
        "members": [
          {
            "astId": 31,
            "contract": "contracts/ReserveManagerV2.sol:ReserveManagerV2",
            "label": "members",
            "offset": 0,
            "slot": "0",
            "type": "t_mapping(t_address,t_bool)"
          },
          {
            "astId": 33,
            "contract": "contracts/ReserveManagerV2.sol:ReserveManagerV2",
            "label": "adminRole",
            "offset": 0,
            "slot": "1",
            "type": "t_bytes32"
          }
        ],
        "numberOfBytes": "64"
      },
      "t_uint256": {
        "encoding": "inplace",
        "label": "uint256",
        "numberOfBytes": "32"
      },
      "t_uint8": {
        "encoding": "inplace",
        "label": "uint8",
        "numberOfBytes": "1"
      }
    }
  }
}