{
  "address": "0x1AC9d64F283A947B69b9F5de6F1D6e6bfE5F6101",
  "abi": [
    {
      "anonymous": false,
      "inputs": [
        {
          "indexed": false,
          "internalType": "uint8",
          "name": "version",
          "type": "uint8"
        }
      ],
      "name": "Initialized",
      "type": "event"
    },
    {
      "anonymous": false,
      "inputs": [
        {
          "indexed": true,
          "internalType": "address",
          "name": "previousOwner",
          "type": "address"
        },
        {
          "indexed": true,
          "internalType": "address",
          "name": "newOwner",
          "type": "address"
        }
      ],
      "name": "OwnershipTransferred",
      "type": "event"
    },
    {
      "inputs": [
        {
          "internalType": "uint256",
          "name": "usdcAmount",
          "type": "uint256"
        },
        {
          "internalType": "uint256",
          "name": "lynxAmount",
          "type": "uint256"
        }
      ],
      "name": "addRewards",
      "outputs": [],
      "stateMutability": "nonpayable",
      "type": "function"
    },
    {
      "inputs": [],
      "name": "initialize",
      "outputs": [],
      "stateMutability": "nonpayable",
      "type": "function"
    },
    {
      "inputs": [],
      "name": "mendi",
      "outputs": [
        {
          "internalType": "address",
          "name": "",
          "type": "address"
        }
      ],
      "stateMutability": "view",
      "type": "function"
    },
    {
      "inputs": [],
      "name": "olynx",
      "outputs": [
        {
          "internalType": "address",
          "name": "",
          "type": "address"
        }
      ],
      "stateMutability": "view",
      "type": "function"
    },
    {
      "inputs": [],
      "name": "owner",
      "outputs": [
        {
          "internalType": "address",
          "name": "",
          "type": "address"
        }
      ],
      "stateMutability": "view",
      "type": "function"
    },
    {
      "inputs": [],
      "name": "renounceOwnership",
      "outputs": [],
      "stateMutability": "nonpayable",
      "type": "function"
    },
    {
      "inputs": [],
      "name": "router",
      "outputs": [
        {
          "internalType": "contract IRouter",
          "name": "",
          "type": "address"
        }
      ],
      "stateMutability": "view",
      "type": "function"
    },
    {
      "inputs": [],
      "name": "sMendi",
      "outputs": [
        {
          "internalType": "contract StakedDistributor",
          "name": "",
          "type": "address"
        }
      ],
      "stateMutability": "view",
      "type": "function"
    },
    {
      "inputs": [
        {
          "internalType": "address",
          "name": "newOwner",
          "type": "address"
        }
      ],
      "name": "transferOwnership",
      "outputs": [],
      "stateMutability": "nonpayable",
      "type": "function"
    },
    {
      "inputs": [],
      "name": "uMendi",
      "outputs": [
        {
          "internalType": "contract StakedDistributor",
          "name": "",
          "type": "address"
        }
      ],
      "stateMutability": "view",
      "type": "function"
    },
    {
      "inputs": [],
      "name": "usdc",
      "outputs": [
        {
          "internalType": "address",
          "name": "",
          "type": "address"
        }
      ],
      "stateMutability": "view",
      "type": "function"
    }
  ],
  "transactionHash": "0x1d759c77238e9cb856d6769a8b8f9c8e746751d759f147d1fe7bc4cd28d31025",
  "args": [],
  "numDeployments": 4,
  "solcInputHash": "9fe576aac62738aa286d4ae055db1d40",
  "bytecode": "0x60a060405273610d2f07b7edc67565160f587f37636194c34e7460805234801561002857600080fd5b506080516111486100526000396000818161018c01528181610d1b0152610d5701526111486000f3fe608060405234801561001057600080fd5b50600436106100a95760003560e01c80638129fc1c116100715780638129fc1c146101405780638da5cb5b14610148578063b093332014610159578063f2fde38b14610174578063f887ea4014610187578063fc41aa09146101ae57600080fd5b806333f5beef146100ae5780633e413bee146100e55780635f33f28114610100578063655c23c21461011b578063715018a614610136575b600080fd5b6100c973150b1e51738cdf0ccfe472594c62d7d6074921ca81565b6040516001600160a01b03909116815260200160405180910390f35b6100c973176211869ca2b568f2a7d4ee941e073a821ee1ff81565b6100c97343e8809ea748eff3204ee01f08872f063e44065f81565b6100c97363349ba5e1f71252ecd56e8f950d1a518b400b6081565b61013e6101c1565b005b61013e6101d5565b6033546001600160a01b03166100c9565b6100c973cf8dedcdc62317beaedfbee3c77c08425f28448681565b61013e610182366004610edb565b6102eb565b6100c97f000000000000000000000000000000000000000000000000000000000000000081565b61013e6101bc366004610ef8565b610361565b6101c96104db565b6101d36000610535565b565b600054610100900460ff16158080156101f55750600054600160ff909116105b8061020f5750303b15801561020f575060005460ff166001145b6102775760405162461bcd60e51b815260206004820152602e60248201527f496e697469616c697a61626c653a20636f6e747261637420697320616c72656160448201526d191e481a5b9a5d1a585b1a5e995960921b60648201526084015b60405180910390fd5b6000805460ff19166001179055801561029a576000805461ff0019166101001790555b6102a2610587565b80156102e8576000805461ff0019169055604051600181527f7f26b83ff96e1f2b6a682f133852f6798a09c465da95921460cefb38474024989060200160405180910390a15b50565b6102f36104db565b6001600160a01b0381166103585760405162461bcd60e51b815260206004820152602660248201527f4f776e61626c653a206e6577206f776e657220697320746865207a65726f206160448201526564647265737360d01b606482015260840161026e565b6102e881610535565b600073150b1e51738cdf0ccfe472594c62d7d6074921ca6001600160a01b03166318160ddd6040518163ffffffff1660e01b8152600401602060405180830381865afa1580156103b5573d6000803e3d6000fd5b505050506040513d601f19601f820116820180604052508101906103d99190610f1a565b9050600073cf8dedcdc62317beaedfbee3c77c08425f2844866001600160a01b03166318160ddd6040518163ffffffff1660e01b8152600401602060405180830381865afa15801561042f573d6000803e3d6000fd5b505050506040513d601f19601f820116820180604052508101906104539190610f1a565b905060006104618284610f49565b905083156104a6576104877363349ba5e1f71252ecd56e8f950d1a518b400b60856105b6565b6104a67363349ba5e1f71252ecd56e8f950d1a518b400b6083836105ef565b84156104d4576104ca73176211869ca2b568f2a7d4ee941e073a821ee1ff866105b6565b6104d48282610768565b5050505050565b6033546001600160a01b031633146101d35760405162461bcd60e51b815260206004820181905260248201527f4f776e61626c653a2063616c6c6572206973206e6f7420746865206f776e6572604482015260640161026e565b603380546001600160a01b038381166001600160a01b0319831681179093556040519116919082907f8be0079c531659141344cd1fd0a4f28419497f9722a3daafe3b4186f6b6457e090600090a35050565b600054610100900460ff166105ae5760405162461bcd60e51b815260040161026e90610f61565b6101d3610929565b6000198114156105d6576105d36001600160a01b03831633610959565b90505b6105eb6001600160a01b0383163330846109ce565b5050565b6000610603846001600160a01b0316610ae6565b9050806106105750505050565b60008261061d8584610fac565b6106279190610fcb565b9050600073cf8dedcdc62317beaedfbee3c77c08425f2844866001600160a01b031663af38d7576040518163ffffffff1660e01b8152600401602060405180830381865afa15801561067d573d6000803e3d6000fd5b505050506040513d601f19601f820116820180604052508101906106a19190610fed565b90506106b76001600160a01b0387168284610b57565b60006106cb876001600160a01b0316610ae6565b9350839050600073150b1e51738cdf0ccfe472594c62d7d6074921ca6001600160a01b031663af38d7576040518163ffffffff1660e01b8152600401602060405180830381865afa158015610724573d6000803e3d6000fd5b505050506040513d601f19601f820116820180604052508101906107489190610fed565b905061075e6001600160a01b0389168284610b57565b5050505050505050565b600061078773176211869ca2b568f2a7d4ee941e073a821ee1ff610ae6565b90508061079357505050565b6000826107a08584610fac565b6107aa9190610fcb565b9050600073cf8dedcdc62317beaedfbee3c77c08425f2844866001600160a01b031663af38d7576040518163ffffffff1660e01b8152600401602060405180830381865afa158015610800573d6000803e3d6000fd5b505050506040513d601f19601f820116820180604052508101906108249190610fed565b905061084573176211869ca2b568f2a7d4ee941e073a821ee1ff8284610b57565b600061086473176211869ca2b568f2a7d4ee941e073a821ee1ff610ae6565b905061086f81610c5b565b600061088e7343e8809ea748eff3204ee01f08872f063e44065f610ae6565b9050600073150b1e51738cdf0ccfe472594c62d7d6074921ca6001600160a01b031663af38d7576040518163ffffffff1660e01b8152600401602060405180830381865afa1580156108e4573d6000803e3d6000fd5b505050506040513d601f19601f820116820180604052508101906109089190610fed565b905061075e7343e8809ea748eff3204ee01f08872f063e44065f8284610b57565b600054610100900460ff166109505760405162461bcd60e51b815260040161026e90610f61565b6101d333610535565b6040516370a0823160e01b81526001600160a01b038281166004830152600091908416906370a0823190602401602060405180830381865afa1580156109a3573d6000803e3d6000fd5b505050506040513d601f19601f820116820180604052508101906109c79190610f1a565b9392505050565b604080516001600160a01b0385811660248301528481166044830152606480830185905283518084039091018152608490920183526020820180516001600160e01b03166323b872dd60e01b1790529151600092839290881691610a32919061100a565b6000604051808303816000865af19150503d8060008114610a6f576040519150601f19603f3d011682016040523d82523d6000602084013e610a74565b606091505b5091509150818015610a9e575080511580610a9e575080806020019051810190610a9e9190611045565b610ade5760405162461bcd60e51b815260206004820152601160248201527021736166655472616e7366657246726f6d60781b604482015260640161026e565b505050505050565b6040516370a0823160e01b81523060048201526000906001600160a01b038316906370a0823190602401602060405180830381865afa158015610b2d573d6000803e3d6000fd5b505050506040513d601f19601f82011682018060405250810190610b519190610f1a565b92915050565b604080516001600160a01b038481166024830152604480830185905283518084039091018152606490920183526020820180516001600160e01b031663a9059cbb60e01b1790529151600092839290871691610bb3919061100a565b6000604051808303816000865af19150503d8060008114610bf0576040519150601f19603f3d011682016040523d82523d6000602084013e610bf5565b606091505b5091509150818015610c1f575080511580610c1f575080806020019051810190610c1f9190611045565b6104d45760405162461bcd60e51b815260206004820152600d60248201526c10b9b0b332aa3930b739b332b960991b604482015260640161026e565b604080516001808252818301909252600091816020015b6040805160608101825260008082526020808301829052928201528252600019909201910181610c725750506040805160608101825273176211869ca2b568f2a7d4ee941e073a821ee1ff81527343e8809ea748eff3204ee01f08872f063e44065f60208201526000918101829052825192935091839190610cf657610cf6611067565b6020908102919091010152610d4073176211869ca2b568f2a7d4ee941e073a821ee1ff7f000000000000000000000000000000000000000000000000000000000000000084610dc3565b604051631e82ecdb60e31b81526001600160a01b037f0000000000000000000000000000000000000000000000000000000000000000169063f41766d890610d9590859060009086903090429060040161107d565b600060405180830381600087803b158015610daf57600080fd5b505af1158015610ade573d6000803e3d6000fd5b604080516001600160a01b038481166024830152604480830185905283518084039091018152606490920183526020820180516001600160e01b031663095ea7b360e01b1790529151600092839290871691610e1f919061100a565b6000604051808303816000865af19150503d8060008114610e5c576040519150601f19603f3d011682016040523d82523d6000602084013e610e61565b606091505b5091509150818015610e8b575080511580610e8b575080806020019051810190610e8b9190611045565b6104d45760405162461bcd60e51b815260206004820152600c60248201526b2173616665417070726f766560a01b604482015260640161026e565b6001600160a01b03811681146102e857600080fd5b600060208284031215610eed57600080fd5b81356109c781610ec6565b60008060408385031215610f0b57600080fd5b50508035926020909101359150565b600060208284031215610f2c57600080fd5b5051919050565b634e487b7160e01b600052601160045260246000fd5b60008219821115610f5c57610f5c610f33565b500190565b6020808252602b908201527f496e697469616c697a61626c653a20636f6e7472616374206973206e6f74206960408201526a6e697469616c697a696e6760a81b606082015260800190565b6000816000190483118215151615610fc657610fc6610f33565b500290565b600082610fe857634e487b7160e01b600052601260045260246000fd5b500490565b600060208284031215610fff57600080fd5b81516109c781610ec6565b6000825160005b8181101561102b5760208186018101518583015201611011565b8181111561103a576000828501525b509190910192915050565b60006020828403121561105757600080fd5b815180151581146109c757600080fd5b634e487b7160e01b600052603260045260246000fd5b600060a0820187835260208781850152604060a08186015282885180855260c087019150838a01945060005b818110156110e657855180516001600160a01b039081168552868201511686850152840151151584840152948401946060909201916001016110a9565b50506001600160a01b0388166060870152935061110292505050565b826080830152969550505050505056fea2646970667358221220b2d1e66908c7c9a148464d8cbc0995ead45b507884a6e94d24dc70ded8b6a0ef64736f6c634300080a0033",
  "devdoc": {
    "kind": "dev",
    "methods": {
      "owner()": {
        "details": "Returns the address of the current owner."
      },
      "renounceOwnership()": {
        "details": "Leaves the contract without owner. It will not be possible to call `onlyOwner` functions anymore. Can only be called by the current owner. NOTE: Renouncing ownership will leave the contract without an owner, thereby removing any functionality that is only available to the owner."
      },
      "transferOwnership(address)": {
        "details": "Transfers ownership of the contract to a new account (`newOwner`). Can only be called by the current owner."
      }
    },
    "version": 1
  },
  "userdoc": {
    "kind": "user",
    "methods": {},
    "version": 1
  },
  "storageLayout": {
    "storage": [
      {
        "astId": 547,
        "contract": "contracts/RewardManagerV2.sol:RewardManagerV2",
        "label": "_initialized",
        "offset": 0,
        "slot": "0",
        "type": "t_uint8"
      },
      {
        "astId": 550,
        "contract": "contracts/RewardManagerV2.sol:RewardManagerV2",
        "label": "_initializing",
        "offset": 1,
        "slot": "0",
        "type": "t_bool"
      },
      {
        "astId": 1749,
        "contract": "contracts/RewardManagerV2.sol:RewardManagerV2",
        "label": "__gap",
        "offset": 0,
        "slot": "1",
        "type": "t_array(t_uint256)50_storage"
      },
      {
        "astId": 419,
        "contract": "contracts/RewardManagerV2.sol:RewardManagerV2",
        "label": "_owner",
        "offset": 0,
        "slot": "51",
        "type": "t_address"
      },
      {
        "astId": 539,
        "contract": "contracts/RewardManagerV2.sol:RewardManagerV2",
        "label": "__gap",
        "offset": 0,
        "slot": "52",
        "type": "t_array(t_uint256)49_storage"
      }
    ],
    "types": {
      "t_address": {
        "encoding": "inplace",
        "label": "address",
        "numberOfBytes": "20"
      },
      "t_array(t_uint256)49_storage": {
        "base": "t_uint256",
        "encoding": "inplace",
        "label": "uint256[49]",
        "numberOfBytes": "1568"
      },
      "t_array(t_uint256)50_storage": {
        "base": "t_uint256",
        "encoding": "inplace",
        "label": "uint256[50]",
        "numberOfBytes": "1600"
      },
      "t_bool": {
        "encoding": "inplace",
        "label": "bool",
        "numberOfBytes": "1"
      },
      "t_uint256": {
        "encoding": "inplace",
        "label": "uint256",
        "numberOfBytes": "32"
      },
      "t_uint8": {
        "encoding": "inplace",
        "label": "uint8",
        "numberOfBytes": "1"
      }
    }
  }
}