{
  "address": "0x2B2b780F9FEFB65d8E60FF986e04be062f1699c6",
  "abi": [
    {
      "anonymous": false,
      "inputs": [
        {
          "indexed": false,
          "internalType": "uint8",
          "name": "version",
          "type": "uint8"
        }
      ],
      "name": "Initialized",
      "type": "event"
    },
    {
      "anonymous": false,
      "inputs": [
        {
          "indexed": true,
          "internalType": "address",
          "name": "previousOwner",
          "type": "address"
        },
        {
          "indexed": true,
          "internalType": "address",
          "name": "newOwner",
          "type": "address"
        }
      ],
      "name": "OwnershipTransferred",
      "type": "event"
    },
    {
      "inputs": [
        {
          "internalType": "uint256",
          "name": "usdcAmount",
          "type": "uint256"
        },
        {
          "internalType": "uint256",
          "name": "lvcAmount",
          "type": "uint256"
        }
      ],
      "name": "addRewards",
      "outputs": [],
      "stateMutability": "nonpayable",
      "type": "function"
    },
    {
      "inputs": [],
      "name": "factory",
      "outputs": [
        {
          "internalType": "contract IFactory",
          "name": "",
          "type": "address"
        }
      ],
      "stateMutability": "view",
      "type": "function"
    },
    {
      "inputs": [],
      "name": "initialize",
      "outputs": [],
      "stateMutability": "nonpayable",
      "type": "function"
    },
    {
      "inputs": [],
      "name": "lvc",
      "outputs": [
        {
          "internalType": "address",
          "name": "",
          "type": "address"
        }
      ],
      "stateMutability": "view",
      "type": "function"
    },
    {
      "inputs": [],
      "name": "lvcToken",
      "outputs": [
        {
          "internalType": "Token",
          "name": "",
          "type": "bytes32"
        }
      ],
      "stateMutability": "view",
      "type": "function"
    },
    {
      "inputs": [],
      "name": "mendi",
      "outputs": [
        {
          "internalType": "address",
          "name": "",
          "type": "address"
        }
      ],
      "stateMutability": "view",
      "type": "function"
    },
    {
      "inputs": [],
      "name": "mendiToken",
      "outputs": [
        {
          "internalType": "Token",
          "name": "",
          "type": "bytes32"
        }
      ],
      "stateMutability": "view",
      "type": "function"
    },
    {
      "inputs": [],
      "name": "mendiUSDCPool",
      "outputs": [
        {
          "internalType": "contract IPool",
          "name": "",
          "type": "address"
        }
      ],
      "stateMutability": "view",
      "type": "function"
    },
    {
      "inputs": [],
      "name": "mendiUSDCPoolToken",
      "outputs": [
        {
          "internalType": "Token",
          "name": "",
          "type": "bytes32"
        }
      ],
      "stateMutability": "view",
      "type": "function"
    },
    {
      "inputs": [],
      "name": "owner",
      "outputs": [
        {
          "internalType": "address",
          "name": "",
          "type": "address"
        }
      ],
      "stateMutability": "view",
      "type": "function"
    },
    {
      "inputs": [],
      "name": "renounceOwnership",
      "outputs": [],
      "stateMutability": "nonpayable",
      "type": "function"
    },
    {
      "inputs": [],
      "name": "sMendi",
      "outputs": [
        {
          "internalType": "contract StakedDistributor",
          "name": "",
          "type": "address"
        }
      ],
      "stateMutability": "view",
      "type": "function"
    },
    {
      "inputs": [
        {
          "internalType": "address",
          "name": "newOwner",
          "type": "address"
        }
      ],
      "name": "transferOwnership",
      "outputs": [],
      "stateMutability": "nonpayable",
      "type": "function"
    },
    {
      "inputs": [],
      "name": "uMendi",
      "outputs": [
        {
          "internalType": "contract StakedDistributor",
          "name": "",
          "type": "address"
        }
      ],
      "stateMutability": "view",
      "type": "function"
    },
    {
      "inputs": [],
      "name": "usdc",
      "outputs": [
        {
          "internalType": "address",
          "name": "",
          "type": "address"
        }
      ],
      "stateMutability": "view",
      "type": "function"
    },
    {
      "inputs": [],
      "name": "usdcToken",
      "outputs": [
        {
          "internalType": "Token",
          "name": "",
          "type": "bytes32"
        }
      ],
      "stateMutability": "view",
      "type": "function"
    },
    {
      "inputs": [],
      "name": "vault",
      "outputs": [
        {
          "internalType": "contract IVault",
          "name": "",
          "type": "address"
        }
      ],
      "stateMutability": "view",
      "type": "function"
    }
  ],
  "transactionHash": "0x37f0b4b4789857e0d98ae3e87b3c42d30cc9becc425c08f40584331b1fc55cee",
  "args": [],
  "numDeployments": 3,
  "solcInputHash": "30da9145a57bd0b5e8926abac94de93b",
  "bytecode": "0x61012060405273150b1e51738cdf0ccfe472594c62d7d6074921ca60805273cf8dedcdc62317beaedfbee3c77c08425f28448660a0527343e8809ea748eff3204ee01f08872f063e44065f60c05273176211869ca2b568f2a7d4ee941e073a821ee1ff60e05273cc22f6aa610d1b2a0e89ef228079cb3e1831b1d16101005234801561008a57600080fd5b5060805160a05160c05160e051610100516116c061014d60003960008181610251015281816103f9015281816106a701526106d1015260008181610183015281816103cc01528181610702015281816109e401528181610ac901528181610af70152610f5e0152600081816101aa0152818161039f01528181610b360152610bf80152600081816101fd0152818161060c0152818161088a0152610a3a01526000818161015c015281816105860152818161093d0152610b6901526116c06000f3fe608060405234801561001057600080fd5b506004361061010b5760003560e01c80638da5cb5b116100a2578063c45a015511610071578063c45a015514610231578063db1e05781461024c578063f2fde38b14610273578063fbfa77cf14610286578063fc41aa09146102a157600080fd5b80638da5cb5b146101e7578063b0933320146101f8578063b45e72001461021f578063bab56ac31461022857600080fd5b80635f33f281116100de5780635f33f281146101a5578063715018a6146101cc57806378f93bf4146101d65780638129fc1c146101df57600080fd5b806311eac855146101105780632512c1081461012c57806333f5beef146101575780633e413bee1461017e575b600080fd5b61011960665481565b6040519081526020015b60405180910390f35b60685461013f906001600160a01b031681565b6040516001600160a01b039091168152602001610123565b61013f7f000000000000000000000000000000000000000000000000000000000000000081565b61013f7f000000000000000000000000000000000000000000000000000000000000000081565b61013f7f000000000000000000000000000000000000000000000000000000000000000081565b6101d46102b4565b005b61011960695481565b6101d46102c8565b6033546001600160a01b031661013f565b61013f7f000000000000000000000000000000000000000000000000000000000000000081565b61011960675481565b61011960655481565b61013f73be6c6a389b82306e88d74d1692b67285a9db9a4781565b61013f7f000000000000000000000000000000000000000000000000000000000000000081565b6101d4610281366004611383565b61050c565b61013f731d0188c4b276a09366d05d6be06af61a73bc753581565b6101d46102af3660046113a0565b610582565b6102bc610738565b6102c66000610792565b565b600054610100900460ff16158080156102e85750600054600160ff909116105b806103025750303b158015610302575060005460ff166001145b61036a5760405162461bcd60e51b815260206004820152602e60248201527f496e697469616c697a61626c653a20636f6e747261637420697320616c72656160448201526d191e481a5b9a5d1a585b1a5e995960921b60648201526084015b60405180910390fd5b6000805460ff19166001179055801561038d576000805461ff0019166101001790555b6103956107e4565b6001600160a01b037f0000000000000000000000000000000000000000000000000000000000000000166065556001600160a01b037f0000000000000000000000000000000000000000000000000000000000000000166066556001600160a01b037f0000000000000000000000000000000000000000000000000000000000000000166067556065546066546040516308311f8f60e21b815273be6c6a389b82306e88d74d1692b67285a9db9a47926320c47e3c9261046092600401918252602082015260400190565b602060405180830381865afa15801561047d573d6000803e3d6000fd5b505050506040513d601f19601f820116820180604052508101906104a191906113c2565b606880546001600160a01b0319166001600160a01b039290921691821790556069558015610509576000805461ff0019169055604051600181527f7f26b83ff96e1f2b6a682f133852f6798a09c465da95921460cefb38474024989060200160405180910390a15b50565b610514610738565b6001600160a01b0381166105795760405162461bcd60e51b815260206004820152602660248201527f4f776e61626c653a206e6577206f776e657220697320746865207a65726f206160448201526564647265737360d01b6064820152608401610361565b61050981610792565b60007f00000000000000000000000000000000000000000000000000000000000000006001600160a01b03166318160ddd6040518163ffffffff1660e01b8152600401602060405180830381865afa1580156105e2573d6000803e3d6000fd5b505050506040513d601f19601f8201168201806040525081019061060691906113df565b905060007f00000000000000000000000000000000000000000000000000000000000000006001600160a01b03166318160ddd6040518163ffffffff1660e01b8152600401602060405180830381865afa158015610668573d6000803e3d6000fd5b505050506040513d601f19601f8201168201806040525081019061068c91906113df565b9050600061069a828461140e565b905083156106f7576106cc7f000000000000000000000000000000000000000000000000000000000000000085610813565b6106f77f0000000000000000000000000000000000000000000000000000000000000000838361084c565b8415610731576107277f000000000000000000000000000000000000000000000000000000000000000086610813565b61073182826109dd565b5050505050565b6033546001600160a01b031633146102c65760405162461bcd60e51b815260206004820181905260248201527f4f776e61626c653a2063616c6c6572206973206e6f7420746865206f776e65726044820152606401610361565b603380546001600160a01b038381166001600160a01b0319831681179093556040519116919082907f8be0079c531659141344cd1fd0a4f28419497f9722a3daafe3b4186f6b6457e090600090a35050565b600054610100900460ff1661080b5760405162461bcd60e51b815260040161036190611426565b6102c6610c1f565b600019811415610833576108306001600160a01b03831633610c4f565b90505b6108486001600160a01b038316333084610cc4565b5050565b6000610860846001600160a01b0316610ddc565b90508061086d5750505050565b60008261087a8584611471565b6108849190611490565b905060007f00000000000000000000000000000000000000000000000000000000000000006001600160a01b031663af38d7576040518163ffffffff1660e01b8152600401602060405180830381865afa1580156108e6573d6000803e3d6000fd5b505050506040513d601f19601f8201168201806040525081019061090a91906113c2565b90506109206001600160a01b0387168284610e4d565b6000610934876001600160a01b0316610ddc565b935083905060007f00000000000000000000000000000000000000000000000000000000000000006001600160a01b031663af38d7576040518163ffffffff1660e01b8152600401602060405180830381865afa158015610999573d6000803e3d6000fd5b505050506040513d601f19601f820116820180604052508101906109bd91906113c2565b90506109d36001600160a01b0389168284610e4d565b5050505050505050565b6000610a117f00000000000000000000000000000000000000000000000000000000000000006001600160a01b0316610ddc565b905080610a1d57505050565b600082610a2a8584611471565b610a349190611490565b905060007f00000000000000000000000000000000000000000000000000000000000000006001600160a01b031663af38d7576040518163ffffffff1660e01b8152600401602060405180830381865afa158015610a96573d6000803e3d6000fd5b505050506040513d601f19601f82011682018060405250810190610aba91906113c2565b9050610af06001600160a01b037f0000000000000000000000000000000000000000000000000000000000000000168284610e4d565b6000610b247f00000000000000000000000000000000000000000000000000000000000000006001600160a01b0316610ddc565b9050610b2f81610f51565b6000610b637f00000000000000000000000000000000000000000000000000000000000000006001600160a01b0316610ddc565b905060007f00000000000000000000000000000000000000000000000000000000000000006001600160a01b031663af38d7576040518163ffffffff1660e01b8152600401602060405180830381865afa158015610bc5573d6000803e3d6000fd5b505050506040513d601f19601f82011682018060405250810190610be991906113c2565b90506109d36001600160a01b037f0000000000000000000000000000000000000000000000000000000000000000168284610e4d565b600054610100900460ff16610c465760405162461bcd60e51b815260040161036190611426565b6102c633610792565b6040516370a0823160e01b81526001600160a01b038281166004830152600091908416906370a0823190602401602060405180830381865afa158015610c99573d6000803e3d6000fd5b505050506040513d601f19601f82011682018060405250810190610cbd91906113df565b9392505050565b604080516001600160a01b0385811660248301528481166044830152606480830185905283518084039091018152608490920183526020820180516001600160e01b03166323b872dd60e01b1790529151600092839290881691610d2891906114e2565b6000604051808303816000865af19150503d8060008114610d65576040519150601f19603f3d011682016040523d82523d6000602084013e610d6a565b606091505b5091509150818015610d94575080511580610d94575080806020019051810190610d9491906114fe565b610dd45760405162461bcd60e51b815260206004820152601160248201527021736166655472616e7366657246726f6d60781b6044820152606401610361565b505050505050565b6040516370a0823160e01b81523060048201526000906001600160a01b038316906370a0823190602401602060405180830381865afa158015610e23573d6000803e3d6000fd5b505050506040513d601f19601f82011682018060405250810190610e4791906113df565b92915050565b604080516001600160a01b038481166024830152604480830185905283518084039091018152606490920183526020820180516001600160e01b031663a9059cbb60e01b1790529151600092839290871691610ea991906114e2565b6000604051808303816000865af19150503d8060008114610ee6576040519150601f19603f3d011682016040523d82523d6000602084013e610eeb565b606091505b5091509150818015610f15575080511580610f15575080806020019051810190610f1591906114fe565b6107315760405162461bcd60e51b815260206004820152600d60248201526c10b9b0b332aa3930b739b332b960991b6044820152606401610361565b610f996001600160a01b037f000000000000000000000000000000000000000000000000000000000000000016731d0188c4b276a09366d05d6be06af61a73bc753583610fc8565b6105096000606860009054906101000a90046001600160a01b03166000606654600086606554600160006110cb565b604080516001600160a01b038481166024830152604480830185905283518084039091018152606490920183526020820180516001600160e01b031663095ea7b360e01b179052915160009283929087169161102491906114e2565b6000604051808303816000865af19150503d8060008114611061576040519150601f19603f3d011682016040523d82523d6000602084013e611066565b606091505b509150915081801561109057508051158061109057508080602001905181019061109091906114fe565b6107315760405162461bcd60e51b815260206004820152600c60248201526b2173616665417070726f766560a01b6044820152606401610361565b60408051600280825260608201835260009260208301908036833750506040805160018082528183019092529293506000929150602082015b6040805160608082018352600082526020808301829052928201528252600019909201910181611104579050509050878260008151811061114757611147611520565b602002602001018181525050848260018151811061116757611167611520565b602002602001018181525050896001600160a01b031660001b8960f81b6001600160f81b03191617816000815181106111a2576111a2611520565b602090810291909101015152604080516002808252606082019092529081602001602082028036833701905050816000815181106111e2576111e2611520565b602002602001015160200181905250604051806020016040528060008152508160008151811061121457611214611520565b602090810291909101015160400152805160ff60f01b60f089901b166001600160801b0388161790829060009061124d5761124d611520565b60200260200101516020015160008151811061126b5761126b611520565b6020908102919091010152805160ff60f01b60f086901b166001600160801b03851617600160f81b179082906000906112a6576112a6611520565b6020026020010151602001516001815181106112c4576112c4611520565b602090810291909101015260408051600280825260608201909252731d0188c4b276a09366d05d6be06af61a73bc75359163d3115a8a918e9186919081602001602082028036833701905050856040518563ffffffff1660e01b815260040161132f939291906115f9565b6000604051808303818588803b15801561134857600080fd5b505af115801561135c573d6000803e3d6000fd5b50505050505050505050505050505050565b6001600160a01b038116811461050957600080fd5b60006020828403121561139557600080fd5b8135610cbd8161136e565b600080604083850312156113b357600080fd5b50508035926020909101359150565b6000602082840312156113d457600080fd5b8151610cbd8161136e565b6000602082840312156113f157600080fd5b5051919050565b634e487b7160e01b600052601160045260246000fd5b60008219821115611421576114216113f8565b500190565b6020808252602b908201527f496e697469616c697a61626c653a20636f6e7472616374206973206e6f74206960408201526a6e697469616c697a696e6760a81b606082015260800190565b600081600019048311821515161561148b5761148b6113f8565b500290565b6000826114ad57634e487b7160e01b600052601260045260246000fd5b500490565b60005b838110156114cd5781810151838201526020016114b5565b838111156114dc576000848401525b50505050565b600082516114f48184602087016114b2565b9190910192915050565b60006020828403121561151057600080fd5b81518015158114610cbd57600080fd5b634e487b7160e01b600052603260045260246000fd5b600081518084526020808501808196508360051b810191508286016000805b868110156115eb578385038a528251805186528681015160608888018190528151908801819052608088019189019085905b808210156115a75782518452928a0192918a019160019190910190611587565b5050506040808301519250878203818901525081518082526115ce818a84018b86016114b2565b9b88019b601f01601f191601870195505091850191600101611555565b509298975050505050505050565b606080825284519082018190526000906020906080840190828801845b8281101561163257815184529284019290840190600101611616565b5050508381038285015285518082528683019183019060005b8181101561166a578351600f0b8352928401929184019160010161164b565b5050848103604086015261167e8187611536565b9897505050505050505056fea2646970667358221220085dc2b5dd9fac722a9fc3f7a8810d13c4b3abc3c2c01c41cd63f7754f0352bc64736f6c634300080a0033",
  "devdoc": {
    "kind": "dev",
    "methods": {
      "owner()": {
        "details": "Returns the address of the current owner."
      },
      "renounceOwnership()": {
        "details": "Leaves the contract without owner. It will not be possible to call `onlyOwner` functions anymore. Can only be called by the current owner. NOTE: Renouncing ownership will leave the contract without an owner, thereby removing any functionality that is only available to the owner."
      },
      "transferOwnership(address)": {
        "details": "Transfers ownership of the contract to a new account (`newOwner`). Can only be called by the current owner."
      }
    },
    "version": 1
  },
  "userdoc": {
    "kind": "user",
    "methods": {},
    "version": 1
  },
  "storageLayout": {
    "storage": [
      {
        "astId": 138,
        "contract": "contracts/RewardManager.sol:RewardManager",
        "label": "_initialized",
        "offset": 0,
        "slot": "0",
        "type": "t_uint8"
      },
      {
        "astId": 141,
        "contract": "contracts/RewardManager.sol:RewardManager",
        "label": "_initializing",
        "offset": 1,
        "slot": "0",
        "type": "t_bool"
      },
      {
        "astId": 1340,
        "contract": "contracts/RewardManager.sol:RewardManager",
        "label": "__gap",
        "offset": 0,
        "slot": "1",
        "type": "t_array(t_uint256)50_storage"
      },
      {
        "astId": 10,
        "contract": "contracts/RewardManager.sol:RewardManager",
        "label": "_owner",
        "offset": 0,
        "slot": "51",
        "type": "t_address"
      },
      {
        "astId": 130,
        "contract": "contracts/RewardManager.sol:RewardManager",
        "label": "__gap",
        "offset": 0,
        "slot": "52",
        "type": "t_array(t_uint256)49_storage"
      },
      {
        "astId": 2360,
        "contract": "contracts/RewardManager.sol:RewardManager",
        "label": "mendiToken",
        "offset": 0,
        "slot": "101",
        "type": "t_userDefinedValueType(Token)3171"
      },
      {
        "astId": 2363,
        "contract": "contracts/RewardManager.sol:RewardManager",
        "label": "usdcToken",
        "offset": 0,
        "slot": "102",
        "type": "t_userDefinedValueType(Token)3171"
      },
      {
        "astId": 2366,
        "contract": "contracts/RewardManager.sol:RewardManager",
        "label": "lvcToken",
        "offset": 0,
        "slot": "103",
        "type": "t_userDefinedValueType(Token)3171"
      },
      {
        "astId": 2369,
        "contract": "contracts/RewardManager.sol:RewardManager",
        "label": "mendiUSDCPool",
        "offset": 0,
        "slot": "104",
        "type": "t_contract(IPool)3397"
      },
      {
        "astId": 2372,
        "contract": "contracts/RewardManager.sol:RewardManager",
        "label": "mendiUSDCPoolToken",
        "offset": 0,
        "slot": "105",
        "type": "t_userDefinedValueType(Token)3171"
      }
    ],
    "types": {
      "t_address": {
        "encoding": "inplace",
        "label": "address",
        "numberOfBytes": "20"
      },
      "t_array(t_uint256)49_storage": {
        "base": "t_uint256",
        "encoding": "inplace",
        "label": "uint256[49]",
        "numberOfBytes": "1568"
      },
      "t_array(t_uint256)50_storage": {
        "base": "t_uint256",
        "encoding": "inplace",
        "label": "uint256[50]",
        "numberOfBytes": "1600"
      },
      "t_bool": {
        "encoding": "inplace",
        "label": "bool",
        "numberOfBytes": "1"
      },
      "t_contract(IPool)3397": {
        "encoding": "inplace",
        "label": "contract IPool",
        "numberOfBytes": "20"
      },
      "t_uint256": {
        "encoding": "inplace",
        "label": "uint256",
        "numberOfBytes": "32"
      },
      "t_uint8": {
        "encoding": "inplace",
        "label": "uint8",
        "numberOfBytes": "1"
      },
      "t_userDefinedValueType(Token)3171": {
        "encoding": "inplace",
        "label": "Token",
        "numberOfBytes": "32"
      }
    }
  }
}