{
  "address": "0x9B927483979872a69f797F234B56f78e917A7c40",
  "abi": [
    {
      "anonymous": false,
      "inputs": [
        {
          "indexed": true,
          "internalType": "address",
          "name": "owner",
          "type": "address"
        },
        {
          "indexed": true,
          "internalType": "address",
          "name": "spender",
          "type": "address"
        },
        {
          "indexed": false,
          "internalType": "uint256",
          "name": "value",
          "type": "uint256"
        }
      ],
      "name": "Approval",
      "type": "event"
    },
    {
      "anonymous": false,
      "inputs": [
        {
          "indexed": true,
          "internalType": "address",
          "name": "token",
          "type": "address"
        },
        {
          "indexed": true,
          "internalType": "address",
          "name": "account",
          "type": "address"
        },
        {
          "indexed": false,
          "internalType": "uint256",
          "name": "amount",
          "type": "uint256"
        }
      ],
      "name": "Claim",
      "type": "event"
    },
    {
      "anonymous": false,
      "inputs": [
        {
          "indexed": false,
          "internalType": "address",
          "name": "oldClaimable",
          "type": "address"
        },
        {
          "indexed": false,
          "internalType": "address",
          "name": "newClaimable",
          "type": "address"
        }
      ],
      "name": "ClaimableUpdate",
      "type": "event"
    },
    {
      "anonymous": false,
      "inputs": [
        {
          "indexed": true,
          "internalType": "address",
          "name": "account",
          "type": "address"
        },
        {
          "indexed": false,
          "internalType": "uint256",
          "name": "shares",
          "type": "uint256"
        },
        {
          "indexed": false,
          "internalType": "uint256",
          "name": "totalShares",
          "type": "uint256"
        }
      ],
      "name": "EditRecipient",
      "type": "event"
    },
    {
      "anonymous": false,
      "inputs": [
        {
          "indexed": false,
          "internalType": "uint8",
          "name": "version",
          "type": "uint8"
        }
      ],
      "name": "Initialized",
      "type": "event"
    },
    {
      "anonymous": false,
      "inputs": [
        {
          "indexed": true,
          "internalType": "address",
          "name": "previousOwner",
          "type": "address"
        },
        {
          "indexed": true,
          "internalType": "address",
          "name": "newOwner",
          "type": "address"
        }
      ],
      "name": "OwnershipTransferred",
      "type": "event"
    },
    {
      "anonymous": false,
      "inputs": [
        {
          "indexed": true,
          "internalType": "address",
          "name": "from",
          "type": "address"
        },
        {
          "indexed": true,
          "internalType": "address",
          "name": "to",
          "type": "address"
        },
        {
          "indexed": false,
          "internalType": "uint256",
          "name": "value",
          "type": "uint256"
        }
      ],
      "name": "Transfer",
      "type": "event"
    },
    {
      "anonymous": false,
      "inputs": [
        {
          "indexed": true,
          "internalType": "address",
          "name": "token",
          "type": "address"
        },
        {
          "indexed": true,
          "internalType": "address",
          "name": "account",
          "type": "address"
        },
        {
          "indexed": false,
          "internalType": "uint256",
          "name": "lastShareIndex",
          "type": "uint256"
        },
        {
          "indexed": false,
          "internalType": "uint256",
          "name": "credit",
          "type": "uint256"
        }
      ],
      "name": "UpdateCredit",
      "type": "event"
    },
    {
      "anonymous": false,
      "inputs": [
        {
          "indexed": true,
          "internalType": "address",
          "name": "token",
          "type": "address"
        },
        {
          "indexed": false,
          "internalType": "uint256",
          "name": "shareIndex",
          "type": "uint256"
        }
      ],
      "name": "UpdateShareIndex",
      "type": "event"
    },
    {
      "inputs": [],
      "name": "MANTISSA2",
      "outputs": [
        {
          "internalType": "uint256",
          "name": "",
          "type": "uint256"
        }
      ],
      "stateMutability": "view",
      "type": "function"
    },
    {
      "inputs": [
        {
          "internalType": "address",
          "name": "newClaimable",
          "type": "address"
        }
      ],
      "name": "_setClaimable",
      "outputs": [],
      "stateMutability": "nonpayable",
      "type": "function"
    },
    {
      "inputs": [
        {
          "internalType": "address",
          "name": "token_",
          "type": "address"
        }
      ],
      "name": "_whitelistToken",
      "outputs": [],
      "stateMutability": "nonpayable",
      "type": "function"
    },
    {
      "inputs": [
        {
          "internalType": "address",
          "name": "owner",
          "type": "address"
        },
        {
          "internalType": "address",
          "name": "spender",
          "type": "address"
        }
      ],
      "name": "allowance",
      "outputs": [
        {
          "internalType": "uint256",
          "name": "",
          "type": "uint256"
        }
      ],
      "stateMutability": "view",
      "type": "function"
    },
    {
      "inputs": [
        {
          "internalType": "address",
          "name": "spender",
          "type": "address"
        },
        {
          "internalType": "uint256",
          "name": "amount",
          "type": "uint256"
        }
      ],
      "name": "approve",
      "outputs": [
        {
          "internalType": "bool",
          "name": "",
          "type": "bool"
        }
      ],
      "stateMutability": "nonpayable",
      "type": "function"
    },
    {
      "inputs": [
        {
          "internalType": "address",
          "name": "account",
          "type": "address"
        }
      ],
      "name": "balanceOf",
      "outputs": [
        {
          "internalType": "uint256",
          "name": "",
          "type": "uint256"
        }
      ],
      "stateMutability": "view",
      "type": "function"
    },
    {
      "inputs": [
        {
          "internalType": "uint256",
          "name": "amount",
          "type": "uint256"
        }
      ],
      "name": "burn",
      "outputs": [],
      "stateMutability": "nonpayable",
      "type": "function"
    },
    {
      "inputs": [
        {
          "internalType": "address",
          "name": "account",
          "type": "address"
        },
        {
          "internalType": "uint256",
          "name": "amount",
          "type": "uint256"
        }
      ],
      "name": "burnFrom",
      "outputs": [],
      "stateMutability": "nonpayable",
      "type": "function"
    },
    {
      "inputs": [
        {
          "internalType": "address",
          "name": "token",
          "type": "address"
        }
      ],
      "name": "claim",
      "outputs": [
        {
          "internalType": "uint256",
          "name": "amount",
          "type": "uint256"
        }
      ],
      "stateMutability": "nonpayable",
      "type": "function"
    },
    {
      "inputs": [],
      "name": "claimAll",
      "outputs": [
        {
          "internalType": "uint256[]",
          "name": "amounts",
          "type": "uint256[]"
        }
      ],
      "stateMutability": "nonpayable",
      "type": "function"
    },
    {
      "inputs": [],
      "name": "claimable",
      "outputs": [
        {
          "internalType": "address",
          "name": "",
          "type": "address"
        }
      ],
      "stateMutability": "view",
      "type": "function"
    },
    {
      "inputs": [],
      "name": "decimals",
      "outputs": [
        {
          "internalType": "uint8",
          "name": "",
          "type": "uint8"
        }
      ],
      "stateMutability": "view",
      "type": "function"
    },
    {
      "inputs": [
        {
          "internalType": "address",
          "name": "spender",
          "type": "address"
        },
        {
          "internalType": "uint256",
          "name": "subtractedValue",
          "type": "uint256"
        }
      ],
      "name": "decreaseAllowance",
      "outputs": [
        {
          "internalType": "bool",
          "name": "",
          "type": "bool"
        }
      ],
      "stateMutability": "nonpayable",
      "type": "function"
    },
    {
      "inputs": [],
      "name": "getTokens",
      "outputs": [
        {
          "internalType": "address[]",
          "name": "",
          "type": "address[]"
        }
      ],
      "stateMutability": "view",
      "type": "function"
    },
    {
      "inputs": [
        {
          "internalType": "address",
          "name": "spender",
          "type": "address"
        },
        {
          "internalType": "uint256",
          "name": "addedValue",
          "type": "uint256"
        }
      ],
      "name": "increaseAllowance",
      "outputs": [
        {
          "internalType": "bool",
          "name": "",
          "type": "bool"
        }
      ],
      "stateMutability": "nonpayable",
      "type": "function"
    },
    {
      "inputs": [
        {
          "internalType": "address",
          "name": "claimable_",
          "type": "address"
        },
        {
          "internalType": "string",
          "name": "name",
          "type": "string"
        },
        {
          "internalType": "string",
          "name": "symbol",
          "type": "string"
        }
      ],
      "name": "initialize",
      "outputs": [],
      "stateMutability": "nonpayable",
      "type": "function"
    },
    {
      "inputs": [
        {
          "internalType": "address",
          "name": "account",
          "type": "address"
        },
        {
          "internalType": "uint256",
          "name": "amount",
          "type": "uint256"
        }
      ],
      "name": "mintTo",
      "outputs": [],
      "stateMutability": "nonpayable",
      "type": "function"
    },
    {
      "inputs": [],
      "name": "name",
      "outputs": [
        {
          "internalType": "string",
          "name": "",
          "type": "string"
        }
      ],
      "stateMutability": "view",
      "type": "function"
    },
    {
      "inputs": [],
      "name": "owner",
      "outputs": [
        {
          "internalType": "address",
          "name": "",
          "type": "address"
        }
      ],
      "stateMutability": "view",
      "type": "function"
    },
    {
      "inputs": [
        {
          "internalType": "address",
          "name": "",
          "type": "address"
        },
        {
          "internalType": "address",
          "name": "",
          "type": "address"
        }
      ],
      "name": "recipients",
      "outputs": [
        {
          "internalType": "uint256",
          "name": "lastShareIndex",
          "type": "uint256"
        },
        {
          "internalType": "uint256",
          "name": "credit",
          "type": "uint256"
        }
      ],
      "stateMutability": "view",
      "type": "function"
    },
    {
      "inputs": [],
      "name": "renounceOwnership",
      "outputs": [],
      "stateMutability": "nonpayable",
      "type": "function"
    },
    {
      "inputs": [
        {
          "internalType": "address",
          "name": "",
          "type": "address"
        }
      ],
      "name": "shareIndex",
      "outputs": [
        {
          "internalType": "uint256",
          "name": "",
          "type": "uint256"
        }
      ],
      "stateMutability": "view",
      "type": "function"
    },
    {
      "inputs": [
        {
          "internalType": "address",
          "name": "",
          "type": "address"
        }
      ],
      "name": "shares",
      "outputs": [
        {
          "internalType": "uint256",
          "name": "",
          "type": "uint256"
        }
      ],
      "stateMutability": "view",
      "type": "function"
    },
    {
      "inputs": [],
      "name": "symbol",
      "outputs": [
        {
          "internalType": "string",
          "name": "",
          "type": "string"
        }
      ],
      "stateMutability": "view",
      "type": "function"
    },
    {
      "inputs": [
        {
          "internalType": "address",
          "name": "",
          "type": "address"
        }
      ],
      "name": "tokenExists",
      "outputs": [
        {
          "internalType": "bool",
          "name": "",
          "type": "bool"
        }
      ],
      "stateMutability": "view",
      "type": "function"
    },
    {
      "inputs": [
        {
          "internalType": "uint256",
          "name": "",
          "type": "uint256"
        }
      ],
      "name": "tokens",
      "outputs": [
        {
          "internalType": "address",
          "name": "",
          "type": "address"
        }
      ],
      "stateMutability": "view",
      "type": "function"
    },
    {
      "inputs": [],
      "name": "totalShares",
      "outputs": [
        {
          "internalType": "uint256",
          "name": "",
          "type": "uint256"
        }
      ],
      "stateMutability": "view",
      "type": "function"
    },
    {
      "inputs": [],
      "name": "totalSupply",
      "outputs": [
        {
          "internalType": "uint256",
          "name": "",
          "type": "uint256"
        }
      ],
      "stateMutability": "view",
      "type": "function"
    },
    {
      "inputs": [
        {
          "internalType": "address",
          "name": "to",
          "type": "address"
        },
        {
          "internalType": "uint256",
          "name": "amount",
          "type": "uint256"
        }
      ],
      "name": "transfer",
      "outputs": [
        {
          "internalType": "bool",
          "name": "",
          "type": "bool"
        }
      ],
      "stateMutability": "nonpayable",
      "type": "function"
    },
    {
      "inputs": [
        {
          "internalType": "address",
          "name": "from",
          "type": "address"
        },
        {
          "internalType": "address",
          "name": "to",
          "type": "address"
        },
        {
          "internalType": "uint256",
          "name": "amount",
          "type": "uint256"
        }
      ],
      "name": "transferFrom",
      "outputs": [
        {
          "internalType": "bool",
          "name": "",
          "type": "bool"
        }
      ],
      "stateMutability": "nonpayable",
      "type": "function"
    },
    {
      "inputs": [
        {
          "internalType": "address",
          "name": "newOwner",
          "type": "address"
        }
      ],
      "name": "transferOwnership",
      "outputs": [],
      "stateMutability": "nonpayable",
      "type": "function"
    },
    {
      "inputs": [
        {
          "internalType": "address",
          "name": "token",
          "type": "address"
        },
        {
          "internalType": "address",
          "name": "account",
          "type": "address"
        }
      ],
      "name": "updateCredit",
      "outputs": [
        {
          "internalType": "uint256",
          "name": "credit",
          "type": "uint256"
        }
      ],
      "stateMutability": "nonpayable",
      "type": "function"
    },
    {
      "inputs": [
        {
          "internalType": "address",
          "name": "token",
          "type": "address"
        }
      ],
      "name": "updateShareIndex",
      "outputs": [
        {
          "internalType": "uint256",
          "name": "_shareIndex",
          "type": "uint256"
        }
      ],
      "stateMutability": "nonpayable",
      "type": "function"
    }
  ],
  "transactionHash": "0xb7e4dc43863a9e20b4a60f7ac42524eb992d9bd4627ca1491dee43f2ea1b51a6",
  "args": [],
  "numDeployments": 1,
  "solcInputHash": "8129e5d9d974913ea73782db8cca90ec",
  "bytecode": "0x608060405234801561001057600080fd5b50611f6a806100206000396000f3fe608060405234801561001057600080fd5b50600436106101fb5760003560e01c80638daa0acb1161011a578063b33f78ca116100ad578063d2f22cf01161007c578063d2f22cf014610451578063d77fa7ee14610471578063dd62ed3e146104b8578063efe235d0146104cb578063f2fde38b146104de57600080fd5b8063b33f78ca146103e6578063cad9efff14610409578063ce7c2ac21461041c578063d1058e591461043c57600080fd5b8063a4692a26116100e9578063a4692a26146103a0578063a9059cbb146103ab578063aa6ca808146103be578063af38d757146103d357600080fd5b80638daa0acb1461035f578063906571471461037257806395d89b4114610385578063a457c2d71461038d57600080fd5b806342966c6811610192578063715018a611610161578063715018a61461032057806375d426331461032857806379cc67901461033b5780638da5cb5b1461034e57600080fd5b806342966c68146102a4578063449a52f8146102b95780634f64b2be146102cc57806370a08231146102f757600080fd5b806323b872dd116101ce57806323b872dd14610266578063313ce5671461027957806339509351146102885780633a98ef391461029b57600080fd5b806306fdde0314610200578063095ea7b31461021e57806318160ddd146102415780631e83409a14610253575b600080fd5b6102086104f1565b6040516102159190611ae2565b60405180910390f35b61023161022c366004611b53565b610583565b6040519015158152602001610215565b606f545b604051908152602001610215565b610245610261366004611b7d565b61059d565b610231610274366004611b98565b6105a9565b60405160128152602001610215565b610231610296366004611b53565b6105cd565b61024560685481565b6102b76102b2366004611bd4565b6105ef565b005b6102b76102c7366004611b53565b610602565b6102df6102da366004611bd4565b610618565b6040516001600160a01b039091168152602001610215565b610245610305366004611b7d565b6001600160a01b03166000908152606d602052604090205490565b6102b7610642565b610245610336366004611b7d565b610656565b6102b7610349366004611b53565b6107b7565b6033546001600160a01b03166102df565b6102b761036d366004611b7d565b6107c9565b6102b7610380366004611c90565b610921565b610208610a40565b61023161039b366004611b53565b610a4f565b610245600160a01b81565b6102316103b9366004611b53565b610aca565b6103c6610ad8565b6040516102159190611d04565b6069546102df906001600160a01b031681565b6102316103f4366004611b7d565b606b6020526000908152604090205460ff1681565b6102b7610417366004611b7d565b610b39565b61024561042a366004611b7d565b60666020526000908152604090205481565b610444610c06565b6040516102159190611d51565b61024561045f366004611b7d565b60676020526000908152604090205481565b6104a361047f366004611d89565b60656020908152600092835260408084209091529082529020805460019091015482565b60408051928352602083019190915201610215565b6102456104c6366004611d89565b610cc1565b6102456104d9366004611d89565b610cec565b6102b76104ec366004611b7d565b610e37565b60606070805461050090611dbc565b80601f016020809104026020016040519081016040528092919081815260200182805461052c90611dbc565b80156105795780601f1061054e57610100808354040283529160200191610579565b820191906000526020600020905b81548152906001019060200180831161055c57829003601f168201915b5050505050905090565b600033610591818585610ead565b60019150505b92915050565b60006105978233610fd1565b6000336105b7858285611143565b6105c28585856111b7565b506001949350505050565b6000336105918185856105e08383610cc1565b6105ea9190611e0d565b610ead565b80156105ff576105ff3382611368565b50565b61060a6114a8565b6106148282611502565b5050565b606a818154811061062857600080fd5b6000918252602090912001546001600160a01b0316905081565b61064a6114a8565b61065460006115cb565b565b606c5460009060ff166106a95760405162461bcd60e51b8152602060048201526016602482015275111a5cdd1c9a589d5d1bdc8e8814915153951154915160521b60448201526064015b60405180910390fd5b606c805460ff191690556068546106d957506001600160a01b0381166000908152606760205260409020546107a5565b60006106e48361161d565b90508061070b5750506001600160a01b0381166000908152606760205260409020546107a5565b6001600160a01b03831660009081526067602052604090205460685461074a91906107449061073e85600160a01b6116cf565b906116e2565b906116ee565b6001600160a01b0384166000818152606760205260409081902083905551919350907f89642dc017a85c05a3e33e3f7040d5fd40e0e2da284ade291929c335f04eebc29061079b9085815260200190565b60405180910390a2505b606c805460ff19166001179055919050565b6107bf6114a8565b6106148282611368565b6107d16114a8565b6001600160a01b0381166108405760405162461bcd60e51b815260206004820152603060248201527f4469737472696275746f723a2072657761726420746f6b656e2063616e6e6f7460448201526f206265207a65726f206164647265737360801b60648201526084016106a0565b6001600160a01b0381166000908152606b602052604090205460ff16156108ba5760405162461bcd60e51b815260206004820152602860248201527f4469737472696275746f723a2072657761726420746f6b656e20616c72656164604482015267792065786973747360c01b60648201526084016106a0565b606a805460018181019092557f116fea137db6e131133e7f2bab296045d8f41cc5607279db17b218cab0929a510180546001600160a01b039093166001600160a01b0319909316831790556000918252606b6020526040909120805460ff19169091179055565b600054610100900460ff16158080156109415750600054600160ff909116105b8061095b5750303b15801561095b575060005460ff166001145b6109be5760405162461bcd60e51b815260206004820152602e60248201527f496e697469616c697a61626c653a20636f6e747261637420697320616c72656160448201526d191e481a5b9a5d1a585b1a5e995960921b60648201526084016106a0565b6000805460ff1916600117905580156109e1576000805461ff0019166101001790555b6109ea846116fa565b6109f48383611732565b8015610a3a576000805461ff0019169055604051600181527f7f26b83ff96e1f2b6a682f133852f6798a09c465da95921460cefb38474024989060200160405180910390a15b50505050565b60606071805461050090611dbc565b60003381610a5d8286610cc1565b905083811015610abd5760405162461bcd60e51b815260206004820152602560248201527f45524332303a2064656372656173656420616c6c6f77616e63652062656c6f77604482015264207a65726f60d81b60648201526084016106a0565b6105c28286868403610ead565b6000336105918185856111b7565b6060606a80548060200260200160405190810160405280929190818152602001828054801561057957602002820191906000526020600020905b81546001600160a01b03168152600190910190602001808311610b12575050505050905090565b610b416114a8565b6001600160a01b038116610ba55760405162461bcd60e51b815260206004820152602560248201527f4469737472696275746f723a20636c61696d61626c652063616e6e6f74206265604482015264207a65726f60d81b60648201526084016106a0565b606980546001600160a01b038381166001600160a01b031983168117909355604080519190921680825260208201939093527f7b0f57de92c389b18aeb87f2b782aa383f348b53d36075a469fd8e927c4350db910160405180910390a15050565b606a5460609067ffffffffffffffff811115610c2457610c24611bed565b604051908082528060200260200182016040528015610c4d578160200160208202803683370190505b50905060005b606a54811015610cbd57610c8e606a8281548110610c7357610c73611e25565b6000918252602090912001546001600160a01b031633610fd1565b828281518110610ca057610ca0611e25565b602090810291909101015280610cb581611e3b565b915050610c53565b5090565b6001600160a01b039182166000908152606e6020908152604080832093909416825291909152205490565b6001600160a01b0382166000908152606b602052604081205460ff16610d545760405162461bcd60e51b815260206004820152601a60248201527f4469737472696275746f723a20496e76616c696420746f6b656e00000000000060448201526064016106a0565b6000610d5f84610656565b905080610d70576000915050610597565b6001600160a01b03808516600090815260656020908152604080832093871683529281528282206066909152919020548154600160a01b90610dbf908390610db9908790611763565b906116cf565b610dc99190611e56565b8260010154610dd89190611e0d565b8383556001830181905560408051858152602081018390529195506001600160a01b0387811692908916917f39cb59c115665c2eda6fe547d7c2a8a8f6908243bf576a69f574973a0b650206910160405180910390a350505092915050565b610e3f6114a8565b6001600160a01b038116610ea45760405162461bcd60e51b815260206004820152602660248201527f4f776e61626c653a206e6577206f776e657220697320746865207a65726f206160448201526564647265737360d01b60648201526084016106a0565b6105ff816115cb565b6001600160a01b038316610f0f5760405162461bcd60e51b8152602060048201526024808201527f45524332303a20617070726f76652066726f6d20746865207a65726f206164646044820152637265737360e01b60648201526084016106a0565b6001600160a01b038216610f705760405162461bcd60e51b815260206004820152602260248201527f45524332303a20617070726f766520746f20746865207a65726f206164647265604482015261737360f01b60648201526084016106a0565b6001600160a01b038381166000818152606e602090815260408083209487168084529482529182902085905590518481527f8c5be1e5ebec7d5bd14f71427d1e84f3dd0314c0f7b2291e5b200ac8c7c3b925910160405180910390a3505050565b6001600160a01b0382166000908152606b602052604081205460ff166110395760405162461bcd60e51b815260206004820152601a60248201527f4469737472696275746f723a20496e76616c696420746f6b656e00000000000060448201526064016106a0565b6110438383610cec565b90508015610597576001600160a01b03808416600090815260656020908152604080832093861683529290529081206001015580156105975760405163a9059cbb60e01b81526001600160a01b0383811660048301526024820183905284169063a9059cbb906044016020604051808303816000875af11580156110cb573d6000803e3d6000fd5b505050506040513d601f19601f820116820180604052508101906110ef9190611e78565b50816001600160a01b0316836001600160a01b03167f70eb43c4a8ae8c40502dcf22436c509c28d6ff421cf07c491be56984bd9870688360405161113591815260200190565b60405180910390a392915050565b600061114f8484610cc1565b90506000198114610a3a57818110156111aa5760405162461bcd60e51b815260206004820152601d60248201527f45524332303a20696e73756666696369656e7420616c6c6f77616e636500000060448201526064016106a0565b610a3a8484848403610ead565b6001600160a01b03831661121b5760405162461bcd60e51b815260206004820152602560248201527f45524332303a207472616e736665722066726f6d20746865207a65726f206164604482015264647265737360d81b60648201526084016106a0565b6001600160a01b03821661127d5760405162461bcd60e51b815260206004820152602360248201527f45524332303a207472616e7366657220746f20746865207a65726f206164647260448201526265737360e81b60648201526084016106a0565b6001600160a01b0383166000908152606d6020526040902054818110156112f55760405162461bcd60e51b815260206004820152602660248201527f45524332303a207472616e7366657220616d6f756e7420657863656564732062604482015265616c616e636560d01b60648201526084016106a0565b6001600160a01b038085166000818152606d602052604080822086860390559286168082529083902080548601905591517fddf252ad1be2c89b69c2b068fc378daa952ba7f163c4a11628f55a4df523b3ef906113559086815260200190565b60405180910390a3610a3a84848461176f565b6001600160a01b0382166113c85760405162461bcd60e51b815260206004820152602160248201527f45524332303a206275726e2066726f6d20746865207a65726f206164647265736044820152607360f81b60648201526084016106a0565b6001600160a01b0382166000908152606d60205260409020548181101561143c5760405162461bcd60e51b815260206004820152602260248201527f45524332303a206275726e20616d6f756e7420657863656564732062616c616e604482015261636560f01b60648201526084016106a0565b6001600160a01b0383166000818152606d602090815260408083208686039055606f80548790039055518581529192917fddf252ad1be2c89b69c2b068fc378daa952ba7f163c4a11628f55a4df523b3ef910160405180910390a36114a38360008461176f565b505050565b6033546001600160a01b031633146106545760405162461bcd60e51b815260206004820181905260248201527f4f776e61626c653a2063616c6c6572206973206e6f7420746865206f776e657260448201526064016106a0565b6001600160a01b0382166115585760405162461bcd60e51b815260206004820152601f60248201527f45524332303a206d696e7420746f20746865207a65726f20616464726573730060448201526064016106a0565b80606f600082825461156a9190611e0d565b90915550506001600160a01b0382166000818152606d60209081526040808320805486019055518481527fddf252ad1be2c89b69c2b068fc378daa952ba7f163c4a11628f55a4df523b3ef910160405180910390a36106146000838361176f565b603380546001600160a01b038381166001600160a01b0319831681179093556040519116919082907f8be0079c531659141344cd1fd0a4f28419497f9722a3daafe3b4186f6b6457e090600090a35050565b6000806116336001600160a01b038416306117d8565b606954604051630f41a04d60e11b81526001600160a01b038681166004830152929350911690631e83409a906024016020604051808303816000875af1158015611681573d6000803e3d6000fd5b505050506040513d601f19601f820116820180604052508101906116a59190611e9a565b5060006116bb6001600160a01b038516306117d8565b90506116c78282611eb3565b949350505050565b60006116db8284611eca565b9392505050565b60006116db8284611e56565b60006116db8284611e0d565b600054610100900460ff166117215760405162461bcd60e51b81526004016106a090611ee9565b611729611846565b6105ff81611875565b600054610100900460ff166117595760405162461bcd60e51b81526004016106a090611ee9565b61061482826118cb565b60006116db8284611eb3565b6001600160a01b038316156117a6576117a6836117a1856001600160a01b03166000908152606d602052604090205490565b611919565b6001600160a01b038216156114a3576114a3826117a1846001600160a01b03166000908152606d602052604090205490565b6040516370a0823160e01b81526001600160a01b038281166004830152600091908416906370a0823190602401602060405180830381865afa158015611822573d6000803e3d6000fd5b505050506040513d601f19601f820116820180604052508101906116db9190611e9a565b600054610100900460ff1661186d5760405162461bcd60e51b81526004016106a090611ee9565b610654611a22565b600054610100900460ff1661189c5760405162461bcd60e51b81526004016106a090611ee9565b606980546001600160a01b0319166001600160a01b0392909216919091179055606c805460ff19166001179055565b600054610100900460ff166118f25760405162461bcd60e51b81526004016106a090611ee9565b8151611905906070906020850190611a52565b5080516114a3906071906020840190611a52565b60005b606a5481101561196a57611957606a828154811061193c5761193c611e25565b6000918252602090912001546001600160a01b031684610cec565b508061196281611e3b565b91505061191c565b506001600160a01b038216600090815260666020526040812054908183116119a7576119a26119998484611eb3565b60685490611763565b6119bd565b6119bd6119b48385611eb3565b606854906116ee565b60688190556001600160a01b038516600081815260666020908152604091829020879055815187815290810184905292935090917fff3664f5f2f8f85ecd8d30ef2aa6773d8a8448219c7421dcbb67957fb3fafba1910160405180910390a250505050565b600054610100900460ff16611a495760405162461bcd60e51b81526004016106a090611ee9565b610654336115cb565b828054611a5e90611dbc565b90600052602060002090601f016020900481019282611a805760008555611ac6565b82601f10611a9957805160ff1916838001178555611ac6565b82800160010185558215611ac6579182015b82811115611ac6578251825591602001919060010190611aab565b50610cbd9291505b80821115610cbd5760008155600101611ace565b600060208083528351808285015260005b81811015611b0f57858101830151858201604001528201611af3565b81811115611b21576000604083870101525b50601f01601f1916929092016040019392505050565b80356001600160a01b0381168114611b4e57600080fd5b919050565b60008060408385031215611b6657600080fd5b611b6f83611b37565b946020939093013593505050565b600060208284031215611b8f57600080fd5b6116db82611b37565b600080600060608486031215611bad57600080fd5b611bb684611b37565b9250611bc460208501611b37565b9150604084013590509250925092565b600060208284031215611be657600080fd5b5035919050565b634e487b7160e01b600052604160045260246000fd5b600082601f830112611c1457600080fd5b813567ffffffffffffffff80821115611c2f57611c2f611bed565b604051601f8301601f19908116603f01168101908282118183101715611c5757611c57611bed565b81604052838152866020858801011115611c7057600080fd5b836020870160208301376000602085830101528094505050505092915050565b600080600060608486031215611ca557600080fd5b611cae84611b37565b9250602084013567ffffffffffffffff80821115611ccb57600080fd5b611cd787838801611c03565b93506040860135915080821115611ced57600080fd5b50611cfa86828701611c03565b9150509250925092565b6020808252825182820181905260009190848201906040850190845b81811015611d455783516001600160a01b031683529284019291840191600101611d20565b50909695505050505050565b6020808252825182820181905260009190848201906040850190845b81811015611d4557835183529284019291840191600101611d6d565b60008060408385031215611d9c57600080fd5b611da583611b37565b9150611db360208401611b37565b90509250929050565b600181811c90821680611dd057607f821691505b60208210811415611df157634e487b7160e01b600052602260045260246000fd5b50919050565b634e487b7160e01b600052601160045260246000fd5b60008219821115611e2057611e20611df7565b500190565b634e487b7160e01b600052603260045260246000fd5b6000600019821415611e4f57611e4f611df7565b5060010190565b600082611e7357634e487b7160e01b600052601260045260246000fd5b500490565b600060208284031215611e8a57600080fd5b815180151581146116db57600080fd5b600060208284031215611eac57600080fd5b5051919050565b600082821015611ec557611ec5611df7565b500390565b6000816000190483118215151615611ee457611ee4611df7565b500290565b6020808252602b908201527f496e697469616c697a61626c653a20636f6e7472616374206973206e6f74206960408201526a6e697469616c697a696e6760a81b60608201526080019056fea26469706673582212202dd1db659b35629e3f7b12c5fb8953064ac3ae937306fb1d348465c4e4cdc4ff64736f6c634300080a0033",
  "devdoc": {
    "kind": "dev",
    "methods": {
      "allowance(address,address)": {
        "details": "See {IERC20-allowance}."
      },
      "approve(address,uint256)": {
        "details": "See {IERC20-approve}. NOTE: If `amount` is the maximum `uint256`, the allowance is not updated on `transferFrom`. This is semantically equivalent to an infinite approval. Requirements: - `spender` cannot be the zero address."
      },
      "balanceOf(address)": {
        "details": "See {IERC20-balanceOf}."
      },
      "decimals()": {
        "details": "Returns the number of decimals used to get its user representation. For example, if `decimals` equals `2`, a balance of `505` tokens should be displayed to a user as `5.05` (`505 / 10 ** 2`). Tokens usually opt for a value of 18, imitating the relationship between Ether and Wei. This is the value {ERC20} uses, unless this function is overridden; NOTE: This information is only used for _display_ purposes: it in no way affects any of the arithmetic of the contract, including {IERC20-balanceOf} and {IERC20-transfer}."
      },
      "decreaseAllowance(address,uint256)": {
        "details": "Atomically decreases the allowance granted to `spender` by the caller. This is an alternative to {approve} that can be used as a mitigation for problems described in {IERC20-approve}. Emits an {Approval} event indicating the updated allowance. Requirements: - `spender` cannot be the zero address. - `spender` must have allowance for the caller of at least `subtractedValue`."
      },
      "increaseAllowance(address,uint256)": {
        "details": "Atomically increases the allowance granted to `spender` by the caller. This is an alternative to {approve} that can be used as a mitigation for problems described in {IERC20-approve}. Emits an {Approval} event indicating the updated allowance. Requirements: - `spender` cannot be the zero address."
      },
      "name()": {
        "details": "Returns the name of the token."
      },
      "owner()": {
        "details": "Returns the address of the current owner."
      },
      "renounceOwnership()": {
        "details": "Leaves the contract without owner. It will not be possible to call `onlyOwner` functions anymore. Can only be called by the current owner. NOTE: Renouncing ownership will leave the contract without an owner, thereby removing any functionality that is only available to the owner."
      },
      "symbol()": {
        "details": "Returns the symbol of the token, usually a shorter version of the name."
      },
      "totalSupply()": {
        "details": "See {IERC20-totalSupply}."
      },
      "transfer(address,uint256)": {
        "details": "See {IERC20-transfer}. Requirements: - `to` cannot be the zero address. - the caller must have a balance of at least `amount`."
      },
      "transferFrom(address,address,uint256)": {
        "details": "See {IERC20-transferFrom}. Emits an {Approval} event indicating the updated allowance. This is not required by the EIP. See the note at the beginning of {ERC20}. NOTE: Does not update the allowance if the current allowance is the maximum `uint256`. Requirements: - `from` and `to` cannot be the zero address. - `from` must have a balance of at least `amount`. - the caller must have allowance for ``from``'s tokens of at least `amount`."
      },
      "transferOwnership(address)": {
        "details": "Transfers ownership of the contract to a new account (`newOwner`). Can only be called by the current owner."
      }
    },
    "version": 1
  },
  "userdoc": {
    "kind": "user",
    "methods": {
      "claimable()": {
        "notice": "Reward holder where can be claimed"
      },
      "getTokens()": {
        "notice": "Getters "
      },
      "tokenExists(address)": {
        "notice": "Flag to check if reward token added before"
      },
      "tokens(uint256)": {
        "notice": "Added reward tokens"
      }
    },
    "version": 1
  },
  "storageLayout": {
    "storage": [
      {
        "astId": 138,
        "contract": "contracts/OwnedDistributor.sol:OwnedDistributor",
        "label": "_initialized",
        "offset": 0,
        "slot": "0",
        "type": "t_uint8"
      },
      {
        "astId": 141,
        "contract": "contracts/OwnedDistributor.sol:OwnedDistributor",
        "label": "_initializing",
        "offset": 1,
        "slot": "0",
        "type": "t_bool"
      },
      {
        "astId": 1340,
        "contract": "contracts/OwnedDistributor.sol:OwnedDistributor",
        "label": "__gap",
        "offset": 0,
        "slot": "1",
        "type": "t_array(t_uint256)50_storage"
      },
      {
        "astId": 10,
        "contract": "contracts/OwnedDistributor.sol:OwnedDistributor",
        "label": "_owner",
        "offset": 0,
        "slot": "51",
        "type": "t_address"
      },
      {
        "astId": 130,
        "contract": "contracts/OwnedDistributor.sol:OwnedDistributor",
        "label": "__gap",
        "offset": 0,
        "slot": "52",
        "type": "t_array(t_uint256)49_storage"
      },
      {
        "astId": 1763,
        "contract": "contracts/OwnedDistributor.sol:OwnedDistributor",
        "label": "recipients",
        "offset": 0,
        "slot": "101",
        "type": "t_mapping(t_address,t_mapping(t_address,t_struct(Recipient)1756_storage))"
      },
      {
        "astId": 1767,
        "contract": "contracts/OwnedDistributor.sol:OwnedDistributor",
        "label": "shares",
        "offset": 0,
        "slot": "102",
        "type": "t_mapping(t_address,t_uint256)"
      },
      {
        "astId": 1771,
        "contract": "contracts/OwnedDistributor.sol:OwnedDistributor",
        "label": "shareIndex",
        "offset": 0,
        "slot": "103",
        "type": "t_mapping(t_address,t_uint256)"
      },
      {
        "astId": 1773,
        "contract": "contracts/OwnedDistributor.sol:OwnedDistributor",
        "label": "totalShares",
        "offset": 0,
        "slot": "104",
        "type": "t_uint256"
      },
      {
        "astId": 1814,
        "contract": "contracts/OwnedDistributor.sol:OwnedDistributor",
        "label": "claimable",
        "offset": 0,
        "slot": "105",
        "type": "t_address"
      },
      {
        "astId": 1818,
        "contract": "contracts/OwnedDistributor.sol:OwnedDistributor",
        "label": "tokens",
        "offset": 0,
        "slot": "106",
        "type": "t_array(t_address)dyn_storage"
      },
      {
        "astId": 1823,
        "contract": "contracts/OwnedDistributor.sol:OwnedDistributor",
        "label": "tokenExists",
        "offset": 0,
        "slot": "107",
        "type": "t_mapping(t_address,t_bool)"
      },
      {
        "astId": 1825,
        "contract": "contracts/OwnedDistributor.sol:OwnedDistributor",
        "label": "_notEntered",
        "offset": 0,
        "slot": "108",
        "type": "t_bool"
      },
      {
        "astId": 319,
        "contract": "contracts/OwnedDistributor.sol:OwnedDistributor",
        "label": "_balances",
        "offset": 0,
        "slot": "109",
        "type": "t_mapping(t_address,t_uint256)"
      },
      {
        "astId": 325,
        "contract": "contracts/OwnedDistributor.sol:OwnedDistributor",
        "label": "_allowances",
        "offset": 0,
        "slot": "110",
        "type": "t_mapping(t_address,t_mapping(t_address,t_uint256))"
      },
      {
        "astId": 327,
        "contract": "contracts/OwnedDistributor.sol:OwnedDistributor",
        "label": "_totalSupply",
        "offset": 0,
        "slot": "111",
        "type": "t_uint256"
      },
      {
        "astId": 329,
        "contract": "contracts/OwnedDistributor.sol:OwnedDistributor",
        "label": "_name",
        "offset": 0,
        "slot": "112",
        "type": "t_string_storage"
      },
      {
        "astId": 331,
        "contract": "contracts/OwnedDistributor.sol:OwnedDistributor",
        "label": "_symbol",
        "offset": 0,
        "slot": "113",
        "type": "t_string_storage"
      },
      {
        "astId": 911,
        "contract": "contracts/OwnedDistributor.sol:OwnedDistributor",
        "label": "__gap",
        "offset": 0,
        "slot": "114",
        "type": "t_array(t_uint256)45_storage"
      }
    ],
    "types": {
      "t_address": {
        "encoding": "inplace",
        "label": "address",
        "numberOfBytes": "20"
      },
      "t_array(t_address)dyn_storage": {
        "base": "t_address",
        "encoding": "dynamic_array",
        "label": "address[]",
        "numberOfBytes": "32"
      },
      "t_array(t_uint256)45_storage": {
        "base": "t_uint256",
        "encoding": "inplace",
        "label": "uint256[45]",
        "numberOfBytes": "1440"
      },
      "t_array(t_uint256)49_storage": {
        "base": "t_uint256",
        "encoding": "inplace",
        "label": "uint256[49]",
        "numberOfBytes": "1568"
      },
      "t_array(t_uint256)50_storage": {
        "base": "t_uint256",
        "encoding": "inplace",
        "label": "uint256[50]",
        "numberOfBytes": "1600"
      },
      "t_bool": {
        "encoding": "inplace",
        "label": "bool",
        "numberOfBytes": "1"
      },
      "t_mapping(t_address,t_bool)": {
        "encoding": "mapping",
        "key": "t_address",
        "label": "mapping(address => bool)",
        "numberOfBytes": "32",
        "value": "t_bool"
      },
      "t_mapping(t_address,t_mapping(t_address,t_struct(Recipient)1756_storage))": {
        "encoding": "mapping",
        "key": "t_address",
        "label": "mapping(address => mapping(address => struct Distributor.Recipient))",
        "numberOfBytes": "32",
        "value": "t_mapping(t_address,t_struct(Recipient)1756_storage)"
      },
      "t_mapping(t_address,t_mapping(t_address,t_uint256))": {
        "encoding": "mapping",
        "key": "t_address",
        "label": "mapping(address => mapping(address => uint256))",
        "numberOfBytes": "32",
        "value": "t_mapping(t_address,t_uint256)"
      },
      "t_mapping(t_address,t_struct(Recipient)1756_storage)": {
        "encoding": "mapping",
        "key": "t_address",
        "label": "mapping(address => struct Distributor.Recipient)",
        "numberOfBytes": "32",
        "value": "t_struct(Recipient)1756_storage"
      },
      "t_mapping(t_address,t_uint256)": {
        "encoding": "mapping",
        "key": "t_address",
        "label": "mapping(address => uint256)",
        "numberOfBytes": "32",
        "value": "t_uint256"
      },
      "t_string_storage": {
        "encoding": "bytes",
        "label": "string",
        "numberOfBytes": "32"
      },
      "t_struct(Recipient)1756_storage": {
        "encoding": "inplace",
        "label": "struct Distributor.Recipient",
        "members": [
          {
            "astId": 1753,
            "contract": "contracts/OwnedDistributor.sol:OwnedDistributor",
            "label": "lastShareIndex",
            "offset": 0,
            "slot": "0",
            "type": "t_uint256"
          },
          {
            "astId": 1755,
            "contract": "contracts/OwnedDistributor.sol:OwnedDistributor",
            "label": "credit",
            "offset": 0,
            "slot": "1",
            "type": "t_uint256"
          }
        ],
        "numberOfBytes": "64"
      },
      "t_uint256": {
        "encoding": "inplace",
        "label": "uint256",
        "numberOfBytes": "32"
      },
      "t_uint8": {
        "encoding": "inplace",
        "label": "uint8",
        "numberOfBytes": "1"
      }
    }
  }
}