{
  "address": "0x8e8bdFF0F84A42E0F1A598D6dc24b50546eaa113",
  "abi": [
    {
      "anonymous": false,
      "inputs": [
        {
          "indexed": true,
          "internalType": "address",
          "name": "owner",
          "type": "address"
        },
        {
          "indexed": true,
          "internalType": "address",
          "name": "spender",
          "type": "address"
        },
        {
          "indexed": false,
          "internalType": "uint256",
          "name": "value",
          "type": "uint256"
        }
      ],
      "name": "Approval",
      "type": "event"
    },
    {
      "anonymous": false,
      "inputs": [
        {
          "indexed": true,
          "internalType": "address",
          "name": "token",
          "type": "address"
        },
        {
          "indexed": true,
          "internalType": "address",
          "name": "account",
          "type": "address"
        },
        {
          "indexed": false,
          "internalType": "uint256",
          "name": "amount",
          "type": "uint256"
        }
      ],
      "name": "Claim",
      "type": "event"
    },
    {
      "anonymous": false,
      "inputs": [
        {
          "indexed": false,
          "internalType": "address",
          "name": "oldClaimable",
          "type": "address"
        },
        {
          "indexed": false,
          "internalType": "address",
          "name": "newClaimable",
          "type": "address"
        }
      ],
      "name": "ClaimableUpdate",
      "type": "event"
    },
    {
      "anonymous": false,
      "inputs": [
        {
          "indexed": true,
          "internalType": "address",
          "name": "account",
          "type": "address"
        },
        {
          "indexed": false,
          "internalType": "uint256",
          "name": "shares",
          "type": "uint256"
        },
        {
          "indexed": false,
          "internalType": "uint256",
          "name": "totalShares",
          "type": "uint256"
        }
      ],
      "name": "EditRecipient",
      "type": "event"
    },
    {
      "anonymous": false,
      "inputs": [
        {
          "indexed": false,
          "internalType": "uint8",
          "name": "version",
          "type": "uint8"
        }
      ],
      "name": "Initialized",
      "type": "event"
    },
    {
      "anonymous": false,
      "inputs": [
        {
          "indexed": true,
          "internalType": "address",
          "name": "previousOwner",
          "type": "address"
        },
        {
          "indexed": true,
          "internalType": "address",
          "name": "newOwner",
          "type": "address"
        }
      ],
      "name": "OwnershipTransferred",
      "type": "event"
    },
    {
      "anonymous": false,
      "inputs": [
        {
          "indexed": true,
          "internalType": "address",
          "name": "from",
          "type": "address"
        },
        {
          "indexed": true,
          "internalType": "address",
          "name": "to",
          "type": "address"
        },
        {
          "indexed": false,
          "internalType": "uint256",
          "name": "value",
          "type": "uint256"
        }
      ],
      "name": "Transfer",
      "type": "event"
    },
    {
      "anonymous": false,
      "inputs": [
        {
          "indexed": true,
          "internalType": "address",
          "name": "token",
          "type": "address"
        },
        {
          "indexed": true,
          "internalType": "address",
          "name": "account",
          "type": "address"
        },
        {
          "indexed": false,
          "internalType": "uint256",
          "name": "lastShareIndex",
          "type": "uint256"
        },
        {
          "indexed": false,
          "internalType": "uint256",
          "name": "credit",
          "type": "uint256"
        }
      ],
      "name": "UpdateCredit",
      "type": "event"
    },
    {
      "anonymous": false,
      "inputs": [
        {
          "indexed": true,
          "internalType": "address",
          "name": "token",
          "type": "address"
        },
        {
          "indexed": false,
          "internalType": "uint256",
          "name": "shareIndex",
          "type": "uint256"
        }
      ],
      "name": "UpdateShareIndex",
      "type": "event"
    },
    {
      "anonymous": false,
      "inputs": [
        {
          "indexed": true,
          "internalType": "address",
          "name": "user",
          "type": "address"
        },
        {
          "indexed": false,
          "internalType": "uint256",
          "name": "amount",
          "type": "uint256"
        }
      ],
      "name": "Withdraw",
      "type": "event"
    },
    {
      "inputs": [],
      "name": "MANTISSA2",
      "outputs": [
        {
          "internalType": "uint256",
          "name": "",
          "type": "uint256"
        }
      ],
      "stateMutability": "view",
      "type": "function"
    },
    {
      "inputs": [
        {
          "internalType": "address",
          "name": "newClaimable",
          "type": "address"
        }
      ],
      "name": "_setClaimable",
      "outputs": [],
      "stateMutability": "nonpayable",
      "type": "function"
    },
    {
      "inputs": [
        {
          "internalType": "uint256",
          "name": "withdrawalPendingTime_",
          "type": "uint256"
        }
      ],
      "name": "_setWithdrawalPendingTime",
      "outputs": [],
      "stateMutability": "nonpayable",
      "type": "function"
    },
    {
      "inputs": [
        {
          "internalType": "address",
          "name": "token_",
          "type": "address"
        }
      ],
      "name": "_whitelistToken",
      "outputs": [],
      "stateMutability": "nonpayable",
      "type": "function"
    },
    {
      "inputs": [
        {
          "internalType": "address",
          "name": "owner",
          "type": "address"
        },
        {
          "internalType": "address",
          "name": "spender",
          "type": "address"
        }
      ],
      "name": "allowance",
      "outputs": [
        {
          "internalType": "uint256",
          "name": "",
          "type": "uint256"
        }
      ],
      "stateMutability": "view",
      "type": "function"
    },
    {
      "inputs": [
        {
          "internalType": "address",
          "name": "spender",
          "type": "address"
        },
        {
          "internalType": "uint256",
          "name": "amount",
          "type": "uint256"
        }
      ],
      "name": "approve",
      "outputs": [
        {
          "internalType": "bool",
          "name": "",
          "type": "bool"
        }
      ],
      "stateMutability": "nonpayable",
      "type": "function"
    },
    {
      "inputs": [
        {
          "internalType": "address",
          "name": "account",
          "type": "address"
        }
      ],
      "name": "balanceOf",
      "outputs": [
        {
          "internalType": "uint256",
          "name": "",
          "type": "uint256"
        }
      ],
      "stateMutability": "view",
      "type": "function"
    },
    {
      "inputs": [
        {
          "internalType": "uint256",
          "name": "amount",
          "type": "uint256"
        }
      ],
      "name": "burn",
      "outputs": [],
      "stateMutability": "nonpayable",
      "type": "function"
    },
    {
      "inputs": [
        {
          "internalType": "address",
          "name": "token",
          "type": "address"
        }
      ],
      "name": "claim",
      "outputs": [
        {
          "internalType": "uint256",
          "name": "amount",
          "type": "uint256"
        }
      ],
      "stateMutability": "nonpayable",
      "type": "function"
    },
    {
      "inputs": [],
      "name": "claimAll",
      "outputs": [
        {
          "internalType": "uint256[]",
          "name": "amounts",
          "type": "uint256[]"
        }
      ],
      "stateMutability": "nonpayable",
      "type": "function"
    },
    {
      "inputs": [],
      "name": "claimable",
      "outputs": [
        {
          "internalType": "address",
          "name": "",
          "type": "address"
        }
      ],
      "stateMutability": "view",
      "type": "function"
    },
    {
      "inputs": [],
      "name": "decimals",
      "outputs": [
        {
          "internalType": "uint8",
          "name": "",
          "type": "uint8"
        }
      ],
      "stateMutability": "view",
      "type": "function"
    },
    {
      "inputs": [
        {
          "internalType": "address",
          "name": "spender",
          "type": "address"
        },
        {
          "internalType": "uint256",
          "name": "subtractedValue",
          "type": "uint256"
        }
      ],
      "name": "decreaseAllowance",
      "outputs": [
        {
          "internalType": "bool",
          "name": "",
          "type": "bool"
        }
      ],
      "stateMutability": "nonpayable",
      "type": "function"
    },
    {
      "inputs": [],
      "name": "getTokens",
      "outputs": [
        {
          "internalType": "address[]",
          "name": "",
          "type": "address[]"
        }
      ],
      "stateMutability": "view",
      "type": "function"
    },
    {
      "inputs": [
        {
          "internalType": "address",
          "name": "spender",
          "type": "address"
        },
        {
          "internalType": "uint256",
          "name": "addedValue",
          "type": "uint256"
        }
      ],
      "name": "increaseAllowance",
      "outputs": [
        {
          "internalType": "bool",
          "name": "",
          "type": "bool"
        }
      ],
      "stateMutability": "nonpayable",
      "type": "function"
    },
    {
      "inputs": [
        {
          "internalType": "address",
          "name": "claimable_",
          "type": "address"
        },
        {
          "internalType": "string",
          "name": "name",
          "type": "string"
        },
        {
          "internalType": "string",
          "name": "symbol",
          "type": "string"
        },
        {
          "internalType": "address",
          "name": "underlying_",
          "type": "address"
        }
      ],
      "name": "initialize",
      "outputs": [],
      "stateMutability": "nonpayable",
      "type": "function"
    },
    {
      "inputs": [
        {
          "internalType": "uint256",
          "name": "amount",
          "type": "uint256"
        }
      ],
      "name": "mint",
      "outputs": [],
      "stateMutability": "nonpayable",
      "type": "function"
    },
    {
      "inputs": [],
      "name": "name",
      "outputs": [
        {
          "internalType": "string",
          "name": "",
          "type": "string"
        }
      ],
      "stateMutability": "view",
      "type": "function"
    },
    {
      "inputs": [],
      "name": "owner",
      "outputs": [
        {
          "internalType": "address",
          "name": "",
          "type": "address"
        }
      ],
      "stateMutability": "view",
      "type": "function"
    },
    {
      "inputs": [
        {
          "internalType": "address",
          "name": "",
          "type": "address"
        },
        {
          "internalType": "address",
          "name": "",
          "type": "address"
        }
      ],
      "name": "recipients",
      "outputs": [
        {
          "internalType": "uint256",
          "name": "lastShareIndex",
          "type": "uint256"
        },
        {
          "internalType": "uint256",
          "name": "credit",
          "type": "uint256"
        }
      ],
      "stateMutability": "view",
      "type": "function"
    },
    {
      "inputs": [],
      "name": "renounceOwnership",
      "outputs": [],
      "stateMutability": "nonpayable",
      "type": "function"
    },
    {
      "inputs": [
        {
          "internalType": "address",
          "name": "",
          "type": "address"
        }
      ],
      "name": "shareIndex",
      "outputs": [
        {
          "internalType": "uint256",
          "name": "",
          "type": "uint256"
        }
      ],
      "stateMutability": "view",
      "type": "function"
    },
    {
      "inputs": [
        {
          "internalType": "address",
          "name": "",
          "type": "address"
        }
      ],
      "name": "shares",
      "outputs": [
        {
          "internalType": "uint256",
          "name": "",
          "type": "uint256"
        }
      ],
      "stateMutability": "view",
      "type": "function"
    },
    {
      "inputs": [],
      "name": "symbol",
      "outputs": [
        {
          "internalType": "string",
          "name": "",
          "type": "string"
        }
      ],
      "stateMutability": "view",
      "type": "function"
    },
    {
      "inputs": [
        {
          "internalType": "address",
          "name": "",
          "type": "address"
        }
      ],
      "name": "tokenExists",
      "outputs": [
        {
          "internalType": "bool",
          "name": "",
          "type": "bool"
        }
      ],
      "stateMutability": "view",
      "type": "function"
    },
    {
      "inputs": [
        {
          "internalType": "uint256",
          "name": "",
          "type": "uint256"
        }
      ],
      "name": "tokens",
      "outputs": [
        {
          "internalType": "address",
          "name": "",
          "type": "address"
        }
      ],
      "stateMutability": "view",
      "type": "function"
    },
    {
      "inputs": [],
      "name": "totalShares",
      "outputs": [
        {
          "internalType": "uint256",
          "name": "",
          "type": "uint256"
        }
      ],
      "stateMutability": "view",
      "type": "function"
    },
    {
      "inputs": [],
      "name": "totalSupply",
      "outputs": [
        {
          "internalType": "uint256",
          "name": "",
          "type": "uint256"
        }
      ],
      "stateMutability": "view",
      "type": "function"
    },
    {
      "inputs": [
        {
          "internalType": "address",
          "name": "to",
          "type": "address"
        },
        {
          "internalType": "uint256",
          "name": "amount",
          "type": "uint256"
        }
      ],
      "name": "transfer",
      "outputs": [
        {
          "internalType": "bool",
          "name": "",
          "type": "bool"
        }
      ],
      "stateMutability": "nonpayable",
      "type": "function"
    },
    {
      "inputs": [
        {
          "internalType": "address",
          "name": "from",
          "type": "address"
        },
        {
          "internalType": "address",
          "name": "to",
          "type": "address"
        },
        {
          "internalType": "uint256",
          "name": "amount",
          "type": "uint256"
        }
      ],
      "name": "transferFrom",
      "outputs": [
        {
          "internalType": "bool",
          "name": "",
          "type": "bool"
        }
      ],
      "stateMutability": "nonpayable",
      "type": "function"
    },
    {
      "inputs": [
        {
          "internalType": "address",
          "name": "newOwner",
          "type": "address"
        }
      ],
      "name": "transferOwnership",
      "outputs": [],
      "stateMutability": "nonpayable",
      "type": "function"
    },
    {
      "inputs": [],
      "name": "underlying",
      "outputs": [
        {
          "internalType": "address",
          "name": "",
          "type": "address"
        }
      ],
      "stateMutability": "view",
      "type": "function"
    },
    {
      "inputs": [
        {
          "internalType": "address",
          "name": "token",
          "type": "address"
        },
        {
          "internalType": "address",
          "name": "account",
          "type": "address"
        }
      ],
      "name": "updateCredit",
      "outputs": [
        {
          "internalType": "uint256",
          "name": "credit",
          "type": "uint256"
        }
      ],
      "stateMutability": "nonpayable",
      "type": "function"
    },
    {
      "inputs": [
        {
          "internalType": "address",
          "name": "token",
          "type": "address"
        }
      ],
      "name": "updateShareIndex",
      "outputs": [
        {
          "internalType": "uint256",
          "name": "_shareIndex",
          "type": "uint256"
        }
      ],
      "stateMutability": "nonpayable",
      "type": "function"
    },
    {
      "inputs": [],
      "name": "withdraw",
      "outputs": [],
      "stateMutability": "nonpayable",
      "type": "function"
    },
    {
      "inputs": [
        {
          "internalType": "address",
          "name": "",
          "type": "address"
        }
      ],
      "name": "withdrawal",
      "outputs": [
        {
          "internalType": "uint256",
          "name": "amount",
          "type": "uint256"
        },
        {
          "internalType": "uint256",
          "name": "releaseTime",
          "type": "uint256"
        }
      ],
      "stateMutability": "view",
      "type": "function"
    },
    {
      "inputs": [],
      "name": "withdrawalPendingTime",
      "outputs": [
        {
          "internalType": "uint256",
          "name": "",
          "type": "uint256"
        }
      ],
      "stateMutability": "view",
      "type": "function"
    }
  ],
  "transactionHash": "0xd43805a9c6f57384c81a0914a824854907ba3e828fb42736a4feb02b1d4897fa",
  "args": [],
  "numDeployments": 1,
  "solcInputHash": "7d750df7ff13bb01f3359627c947ed62",
  "bytecode": "0x6080604052606c805460ff1916600117905562093a80609f5534801561002457600080fd5b50612332806100346000396000f3fe608060405234801561001057600080fd5b50600436106102275760003560e01c80638daa0acb11610130578063b33f78ca116100b8578063d2f22cf01161007c578063d2f22cf0146104dd578063d77fa7ee146104fd578063dd62ed3e1461052f578063efe235d014610542578063f2fde38b1461055557600080fd5b8063b33f78ca1461045f578063c9b6198114610482578063cad9efff14610495578063ce7c2ac2146104a8578063d1058e59146104c857600080fd5b8063a457c2d7116100ff578063a457c2d714610406578063a4692a2614610419578063a9059cbb14610424578063aa6ca80814610437578063af38d7571461044c57600080fd5b80638daa0acb1461039c57806395d89b41146103af57806396131049146103b7578063a0712d68146103f357600080fd5b806342966c68116101b35780636f307dc3116101825780636f307dc31461033457806370a0823114610347578063715018a61461037057806375d42633146103785780638da5cb5b1461038b57600080fd5b806342966c68146102da5780634f64b2be146102ed5780636131ab0314610318578063613d25bb1461032157600080fd5b806323b872dd116101fa57806323b872dd14610292578063313ce567146102a557806339509351146102b45780633a98ef39146102c75780633ccfd60b146102d057600080fd5b806306fdde031461022c578063095ea7b31461024a57806318160ddd1461026d5780631e83409a1461027f575b600080fd5b610234610568565b6040516102419190611e9f565b60405180910390f35b61025d610258366004611eee565b6105fa565b6040519015158152602001610241565b606f545b604051908152602001610241565b61027161028d366004611f18565b610614565b61025d6102a0366004611f33565b610620565b60405160128152602001610241565b61025d6102c2366004611eee565b610644565b61027160685481565b6102d8610666565b005b6102d86102e8366004611f6f565b610724565b6103006102fb366004611f6f565b610769565b6040516001600160a01b039091168152602001610241565b610271609f5481565b6102d861032f36600461202b565b610793565b60a154610300906001600160a01b031681565b610271610355366004611f18565b6001600160a01b03166000908152606d602052604090205490565b6102d86108ce565b610271610386366004611f18565b6108e2565b6033546001600160a01b0316610300565b6102d86103aa366004611f18565b610a3e565b610234610b96565b6103de6103c5366004611f18565b60a0602052600090815260409020805460019091015482565b60408051928352602083019190915201610241565b6102d8610401366004611f6f565b610ba5565b61025d610414366004611eee565b610bc7565b610271600160a01b81565b61025d610432366004611eee565b610c42565b61043f610c50565b60405161024191906120b0565b606954610300906001600160a01b031681565b61025d61046d366004611f18565b606b6020526000908152604090205460ff1681565b6102d8610490366004611f6f565b610cb1565b6102d86104a3366004611f18565b610cbe565b6102716104b6366004611f18565b60666020526000908152604090205481565b6104d0610d8b565b60405161024191906120fd565b6102716104eb366004611f18565b60676020526000908152604090205481565b6103de61050b366004612135565b60656020908152600092835260408084209091529082529020805460019091015482565b61027161053d366004612135565b610e46565b610271610550366004612135565b610e71565b6102d8610563366004611f18565b610fbc565b60606070805461057790612168565b80601f01602080910402602001604051908101604052809291908181526020018280546105a390612168565b80156105f05780601f106105c5576101008083540402835291602001916105f0565b820191906000526020600020905b8154815290600101906020018083116105d357829003601f168201915b5050505050905090565b600033610608818585611032565b60019150505b92915050565b600061060e8233611156565b60003361062e8582856112bb565b610639858585611335565b506001949350505050565b6000336106088185856106578383610e46565b61066191906121b9565b611032565b33600090815260a06020526040902060018101544210156106ce5760405162461bcd60e51b815260206004820152601f60248201527f5374616b65644469737472696275746f723a206e6f742072656c65617365640060448201526064015b60405180910390fd5b80546000825560a1546106eb906001600160a01b031633836114e6565b60405181815233907f884edad9ce6fa2440d8a54cc123490eb96d2768479d49ff9c7366125a94243649060200160405180910390a25050565b80156107665761073433826115ea565b33600090815260a06020526040902080546107509083906121b9565b8155609f5461075f90426121b9565b6001909101555b50565b606a818154811061077957600080fd5b6000918252602090912001546001600160a01b0316905081565b600054610100900460ff16158080156107b35750600054600160ff909116105b806107cd5750303b1580156107cd575060005460ff166001145b6108305760405162461bcd60e51b815260206004820152602e60248201527f496e697469616c697a61626c653a20636f6e747261637420697320616c72656160448201526d191e481a5b9a5d1a585b1a5e995960921b60648201526084016106c5565b6000805460ff191660011790558015610853576000805461ff0019166101001790555b61085c8561172a565b6108668484611762565b60a180546001600160a01b0319166001600160a01b03841617905580156108c7576000805461ff0019169055604051600181527f7f26b83ff96e1f2b6a682f133852f6798a09c465da95921460cefb38474024989060200160405180910390a15b5050505050565b6108d6611797565b6108e060006117f1565b565b606c5460009060ff166109305760405162461bcd60e51b8152602060048201526016602482015275111a5cdd1c9a589d5d1bdc8e8814915153951154915160521b60448201526064016106c5565b606c805460ff1916905560685461096057506001600160a01b038116600090815260676020526040902054610a2c565b600061096b83611843565b9050806109925750506001600160a01b038116600090815260676020526040902054610a2c565b6001600160a01b0383166000908152606760205260409020546068546109d191906109cb906109c585600160a01b6118f5565b90611908565b90611914565b6001600160a01b0384166000818152606760205260409081902083905551919350907f89642dc017a85c05a3e33e3f7040d5fd40e0e2da284ade291929c335f04eebc290610a229085815260200190565b60405180910390a2505b606c805460ff19166001179055919050565b610a46611797565b6001600160a01b038116610ab55760405162461bcd60e51b815260206004820152603060248201527f4469737472696275746f723a2072657761726420746f6b656e2063616e6e6f7460448201526f206265207a65726f206164647265737360801b60648201526084016106c5565b6001600160a01b0381166000908152606b602052604090205460ff1615610b2f5760405162461bcd60e51b815260206004820152602860248201527f4469737472696275746f723a2072657761726420746f6b656e20616c72656164604482015267792065786973747360c01b60648201526084016106c5565b606a805460018181019092557f116fea137db6e131133e7f2bab296045d8f41cc5607279db17b218cab0929a510180546001600160a01b039093166001600160a01b0319909316831790556000918252606b6020526040909120805460ff19169091179055565b60606071805461057790612168565b60a154610bbd906001600160a01b0316333084611920565b6107663382611a38565b60003381610bd58286610e46565b905083811015610c355760405162461bcd60e51b815260206004820152602560248201527f45524332303a2064656372656173656420616c6c6f77616e63652062656c6f77604482015264207a65726f60d81b60648201526084016106c5565b6106398286868403611032565b600033610608818585611335565b6060606a8054806020026020016040519081016040528092919081815260200182805480156105f057602002820191906000526020600020905b81546001600160a01b03168152600190910190602001808311610c8a575050505050905090565b610cb9611797565b609f55565b610cc6611797565b6001600160a01b038116610d2a5760405162461bcd60e51b815260206004820152602560248201527f4469737472696275746f723a20636c61696d61626c652063616e6e6f74206265604482015264207a65726f60d81b60648201526084016106c5565b606980546001600160a01b038381166001600160a01b031983168117909355604080519190921680825260208201939093527f7b0f57de92c389b18aeb87f2b782aa383f348b53d36075a469fd8e927c4350db910160405180910390a15050565b606a5460609067ffffffffffffffff811115610da957610da9611f88565b604051908082528060200260200182016040528015610dd2578160200160208202803683370190505b50905060015b606a54811015610e4257610e13606a8281548110610df857610df86121d1565b6000918252602090912001546001600160a01b031633611156565b828281518110610e2557610e256121d1565b602090810291909101015280610e3a816121e7565b915050610dd8565b5090565b6001600160a01b039182166000908152606e6020908152604080832093909416825291909152205490565b6001600160a01b0382166000908152606b602052604081205460ff16610ed95760405162461bcd60e51b815260206004820152601a60248201527f4469737472696275746f723a20496e76616c696420746f6b656e00000000000060448201526064016106c5565b6000610ee4846108e2565b905080610ef557600091505061060e565b6001600160a01b03808516600090815260656020908152604080832093871683529281528282206066909152919020548154600160a01b90610f44908390610f3e908790611b01565b906118f5565b610f4e9190612202565b8260010154610f5d91906121b9565b8383556001830181905560408051858152602081018390529195506001600160a01b0387811692908916917f39cb59c115665c2eda6fe547d7c2a8a8f6908243bf576a69f574973a0b650206910160405180910390a350505092915050565b610fc4611797565b6001600160a01b0381166110295760405162461bcd60e51b815260206004820152602660248201527f4f776e61626c653a206e6577206f776e657220697320746865207a65726f206160448201526564647265737360d01b60648201526084016106c5565b610766816117f1565b6001600160a01b0383166110945760405162461bcd60e51b8152602060048201526024808201527f45524332303a20617070726f76652066726f6d20746865207a65726f206164646044820152637265737360e01b60648201526084016106c5565b6001600160a01b0382166110f55760405162461bcd60e51b815260206004820152602260248201527f45524332303a20617070726f766520746f20746865207a65726f206164647265604482015261737360f01b60648201526084016106c5565b6001600160a01b038381166000818152606e602090815260408083209487168084529482529182902085905590518481527f8c5be1e5ebec7d5bd14f71427d1e84f3dd0314c0f7b2291e5b200ac8c7c3b925910160405180910390a3505050565b6001600160a01b0382166000908152606b602052604081205460ff166111be5760405162461bcd60e51b815260206004820152601a60248201527f4469737472696275746f723a20496e76616c696420746f6b656e00000000000060448201526064016106c5565b6111c88383610e71565b9050801561060e576001600160a01b03838116600081815260656020908152604080832094871680845294909152808220600101919091555163a9059cbb60e01b81526004810192909252602482018390529063a9059cbb906044016020604051808303816000875af1158015611243573d6000803e3d6000fd5b505050506040513d601f19601f820116820180604052508101906112679190612224565b50816001600160a01b0316836001600160a01b03167f70eb43c4a8ae8c40502dcf22436c509c28d6ff421cf07c491be56984bd987068836040516112ad91815260200190565b60405180910390a392915050565b60006112c78484610e46565b9050600019811461132f57818110156113225760405162461bcd60e51b815260206004820152601d60248201527f45524332303a20696e73756666696369656e7420616c6c6f77616e636500000060448201526064016106c5565b61132f8484848403611032565b50505050565b6001600160a01b0383166113995760405162461bcd60e51b815260206004820152602560248201527f45524332303a207472616e736665722066726f6d20746865207a65726f206164604482015264647265737360d81b60648201526084016106c5565b6001600160a01b0382166113fb5760405162461bcd60e51b815260206004820152602360248201527f45524332303a207472616e7366657220746f20746865207a65726f206164647260448201526265737360e81b60648201526084016106c5565b6001600160a01b0383166000908152606d6020526040902054818110156114735760405162461bcd60e51b815260206004820152602660248201527f45524332303a207472616e7366657220616d6f756e7420657863656564732062604482015265616c616e636560d01b60648201526084016106c5565b6001600160a01b038085166000818152606d602052604080822086860390559286168082529083902080548601905591517fddf252ad1be2c89b69c2b068fc378daa952ba7f163c4a11628f55a4df523b3ef906114d39086815260200190565b60405180910390a361132f848484611b0d565b604080516001600160a01b038481166024830152604480830185905283518084039091018152606490920183526020820180516001600160e01b031663a9059cbb60e01b17905291516000928392908716916115429190612246565b6000604051808303816000865af19150503d806000811461157f576040519150601f19603f3d011682016040523d82523d6000602084013e611584565b606091505b50915091508180156115ae5750805115806115ae5750808060200190518101906115ae9190612224565b6108c75760405162461bcd60e51b815260206004820152600d60248201526c10b9b0b332aa3930b739b332b960991b60448201526064016106c5565b6001600160a01b03821661164a5760405162461bcd60e51b815260206004820152602160248201527f45524332303a206275726e2066726f6d20746865207a65726f206164647265736044820152607360f81b60648201526084016106c5565b6001600160a01b0382166000908152606d6020526040902054818110156116be5760405162461bcd60e51b815260206004820152602260248201527f45524332303a206275726e20616d6f756e7420657863656564732062616c616e604482015261636560f01b60648201526084016106c5565b6001600160a01b0383166000818152606d602090815260408083208686039055606f80548790039055518581529192917fddf252ad1be2c89b69c2b068fc378daa952ba7f163c4a11628f55a4df523b3ef910160405180910390a361172583600084611b0d565b505050565b600054610100900460ff166117515760405162461bcd60e51b81526004016106c590612262565b611759611b76565b61076681611ba5565b600054610100900460ff166117895760405162461bcd60e51b81526004016106c590612262565b6117938282611bee565b5050565b6033546001600160a01b031633146108e05760405162461bcd60e51b815260206004820181905260248201527f4f776e61626c653a2063616c6c6572206973206e6f7420746865206f776e657260448201526064016106c5565b603380546001600160a01b038381166001600160a01b0319831681179093556040519116919082907f8be0079c531659141344cd1fd0a4f28419497f9722a3daafe3b4186f6b6457e090600090a35050565b6000806118596001600160a01b03841630611c3c565b606954604051630f41a04d60e11b81526001600160a01b038681166004830152929350911690631e83409a906024016020604051808303816000875af11580156118a7573d6000803e3d6000fd5b505050506040513d601f19601f820116820180604052508101906118cb91906122ad565b5060006118e16001600160a01b03851630611c3c565b90506118ed82826122c6565b949350505050565b600061190182846122dd565b9392505050565b60006119018284612202565b600061190182846121b9565b604080516001600160a01b0385811660248301528481166044830152606480830185905283518084039091018152608490920183526020820180516001600160e01b03166323b872dd60e01b17905291516000928392908816916119849190612246565b6000604051808303816000865af19150503d80600081146119c1576040519150601f19603f3d011682016040523d82523d6000602084013e6119c6565b606091505b50915091508180156119f05750805115806119f05750808060200190518101906119f09190612224565b611a305760405162461bcd60e51b815260206004820152601160248201527021736166655472616e7366657246726f6d60781b60448201526064016106c5565b505050505050565b6001600160a01b038216611a8e5760405162461bcd60e51b815260206004820152601f60248201527f45524332303a206d696e7420746f20746865207a65726f20616464726573730060448201526064016106c5565b80606f6000828254611aa091906121b9565b90915550506001600160a01b0382166000818152606d60209081526040808320805486019055518481527fddf252ad1be2c89b69c2b068fc378daa952ba7f163c4a11628f55a4df523b3ef910160405180910390a361179360008383611b0d565b600061190182846122c6565b6001600160a01b03831615611b4457611b4483611b3f856001600160a01b03166000908152606d602052604090205490565b611caa565b6001600160a01b038216156117255761172582611b3f846001600160a01b03166000908152606d602052604090205490565b600054610100900460ff16611b9d5760405162461bcd60e51b81526004016106c590612262565b6108e0611db3565b600054610100900460ff16611bcc5760405162461bcd60e51b81526004016106c590612262565b606980546001600160a01b0319166001600160a01b0392909216919091179055565b600054610100900460ff16611c155760405162461bcd60e51b81526004016106c590612262565b8151611c28906070906020850190611de3565b508051611725906071906020840190611de3565b6040516370a0823160e01b81526001600160a01b038281166004830152600091908416906370a0823190602401602060405180830381865afa158015611c86573d6000803e3d6000fd5b505050506040513d601f19601f8201168201806040525081019061190191906122ad565b60015b606a54811015611cfb57611ce8606a8281548110611ccd57611ccd6121d1565b6000918252602090912001546001600160a01b031684610e71565b5080611cf3816121e7565b915050611cad565b506001600160a01b03821660009081526066602052604081205490818311611d3857611d33611d2a84846122c6565b60685490611b01565b611d4e565b611d4e611d4583856122c6565b60685490611914565b60688190556001600160a01b038516600081815260666020908152604091829020879055815187815290810184905292935090917fff3664f5f2f8f85ecd8d30ef2aa6773d8a8448219c7421dcbb67957fb3fafba1910160405180910390a250505050565b600054610100900460ff16611dda5760405162461bcd60e51b81526004016106c590612262565b6108e0336117f1565b828054611def90612168565b90600052602060002090601f016020900481019282611e115760008555611e57565b82601f10611e2a57805160ff1916838001178555611e57565b82800160010185558215611e57579182015b82811115611e57578251825591602001919060010190611e3c565b50610e429291505b80821115610e425760008155600101611e5f565b60005b83811015611e8e578181015183820152602001611e76565b8381111561132f5750506000910152565b6020815260008251806020840152611ebe816040850160208701611e73565b601f01601f19169190910160400192915050565b80356001600160a01b0381168114611ee957600080fd5b919050565b60008060408385031215611f0157600080fd5b611f0a83611ed2565b946020939093013593505050565b600060208284031215611f2a57600080fd5b61190182611ed2565b600080600060608486031215611f4857600080fd5b611f5184611ed2565b9250611f5f60208501611ed2565b9150604084013590509250925092565b600060208284031215611f8157600080fd5b5035919050565b634e487b7160e01b600052604160045260246000fd5b600082601f830112611faf57600080fd5b813567ffffffffffffffff80821115611fca57611fca611f88565b604051601f8301601f19908116603f01168101908282118183101715611ff257611ff2611f88565b8160405283815286602085880101111561200b57600080fd5b836020870160208301376000602085830101528094505050505092915050565b6000806000806080858703121561204157600080fd5b61204a85611ed2565b9350602085013567ffffffffffffffff8082111561206757600080fd5b61207388838901611f9e565b9450604087013591508082111561208957600080fd5b5061209687828801611f9e565b9250506120a560608601611ed2565b905092959194509250565b6020808252825182820181905260009190848201906040850190845b818110156120f15783516001600160a01b0316835292840192918401916001016120cc565b50909695505050505050565b6020808252825182820181905260009190848201906040850190845b818110156120f157835183529284019291840191600101612119565b6000806040838503121561214857600080fd5b61215183611ed2565b915061215f60208401611ed2565b90509250929050565b600181811c9082168061217c57607f821691505b6020821081141561219d57634e487b7160e01b600052602260045260246000fd5b50919050565b634e487b7160e01b600052601160045260246000fd5b600082198211156121cc576121cc6121a3565b500190565b634e487b7160e01b600052603260045260246000fd5b60006000198214156121fb576121fb6121a3565b5060010190565b60008261221f57634e487b7160e01b600052601260045260246000fd5b500490565b60006020828403121561223657600080fd5b8151801515811461190157600080fd5b60008251612258818460208701611e73565b9190910192915050565b6020808252602b908201527f496e697469616c697a61626c653a20636f6e7472616374206973206e6f74206960408201526a6e697469616c697a696e6760a81b606082015260800190565b6000602082840312156122bf57600080fd5b5051919050565b6000828210156122d8576122d86121a3565b500390565b60008160001904831182151516156122f7576122f76121a3565b50029056fea2646970667358221220dde1024ae11142b05af72d15f53f5e573912ed4f2363b387eb7762ac84ac63df64736f6c634300080a0033",
  "devdoc": {
    "kind": "dev",
    "methods": {
      "allowance(address,address)": {
        "details": "See {IERC20-allowance}."
      },
      "approve(address,uint256)": {
        "details": "See {IERC20-approve}. NOTE: If `amount` is the maximum `uint256`, the allowance is not updated on `transferFrom`. This is semantically equivalent to an infinite approval. Requirements: - `spender` cannot be the zero address."
      },
      "balanceOf(address)": {
        "details": "See {IERC20-balanceOf}."
      },
      "decimals()": {
        "details": "Returns the number of decimals used to get its user representation. For example, if `decimals` equals `2`, a balance of `505` tokens should be displayed to a user as `5.05` (`505 / 10 ** 2`). Tokens usually opt for a value of 18, imitating the relationship between Ether and Wei. This is the value {ERC20} uses, unless this function is overridden; NOTE: This information is only used for _display_ purposes: it in no way affects any of the arithmetic of the contract, including {IERC20-balanceOf} and {IERC20-transfer}."
      },
      "decreaseAllowance(address,uint256)": {
        "details": "Atomically decreases the allowance granted to `spender` by the caller. This is an alternative to {approve} that can be used as a mitigation for problems described in {IERC20-approve}. Emits an {Approval} event indicating the updated allowance. Requirements: - `spender` cannot be the zero address. - `spender` must have allowance for the caller of at least `subtractedValue`."
      },
      "increaseAllowance(address,uint256)": {
        "details": "Atomically increases the allowance granted to `spender` by the caller. This is an alternative to {approve} that can be used as a mitigation for problems described in {IERC20-approve}. Emits an {Approval} event indicating the updated allowance. Requirements: - `spender` cannot be the zero address."
      },
      "name()": {
        "details": "Returns the name of the token."
      },
      "owner()": {
        "details": "Returns the address of the current owner."
      },
      "renounceOwnership()": {
        "details": "Leaves the contract without owner. It will not be possible to call `onlyOwner` functions anymore. Can only be called by the current owner. NOTE: Renouncing ownership will leave the contract without an owner, thereby removing any functionality that is only available to the owner."
      },
      "symbol()": {
        "details": "Returns the symbol of the token, usually a shorter version of the name."
      },
      "totalSupply()": {
        "details": "See {IERC20-totalSupply}."
      },
      "transfer(address,uint256)": {
        "details": "See {IERC20-transfer}. Requirements: - `to` cannot be the zero address. - the caller must have a balance of at least `amount`."
      },
      "transferFrom(address,address,uint256)": {
        "details": "See {IERC20-transferFrom}. Emits an {Approval} event indicating the updated allowance. This is not required by the EIP. See the note at the beginning of {ERC20}. NOTE: Does not update the allowance if the current allowance is the maximum `uint256`. Requirements: - `from` and `to` cannot be the zero address. - `from` must have a balance of at least `amount`. - the caller must have allowance for ``from``'s tokens of at least `amount`."
      },
      "transferOwnership(address)": {
        "details": "Transfers ownership of the contract to a new account (`newOwner`). Can only be called by the current owner."
      }
    },
    "version": 1
  },
  "userdoc": {
    "kind": "user",
    "methods": {
      "claimable()": {
        "notice": "Reward holder where can be claimed"
      },
      "getTokens()": {
        "notice": "Getters "
      },
      "tokenExists(address)": {
        "notice": "Flag to check if reward token added before"
      },
      "tokens(uint256)": {
        "notice": "Added reward tokens"
      }
    },
    "version": 1
  },
  "storageLayout": {
    "storage": [
      {
        "astId": 138,
        "contract": "contracts/StakedDistributor.sol:StakedDistributor",
        "label": "_initialized",
        "offset": 0,
        "slot": "0",
        "type": "t_uint8"
      },
      {
        "astId": 141,
        "contract": "contracts/StakedDistributor.sol:StakedDistributor",
        "label": "_initializing",
        "offset": 1,
        "slot": "0",
        "type": "t_bool"
      },
      {
        "astId": 1340,
        "contract": "contracts/StakedDistributor.sol:StakedDistributor",
        "label": "__gap",
        "offset": 0,
        "slot": "1",
        "type": "t_array(t_uint256)50_storage"
      },
      {
        "astId": 10,
        "contract": "contracts/StakedDistributor.sol:StakedDistributor",
        "label": "_owner",
        "offset": 0,
        "slot": "51",
        "type": "t_address"
      },
      {
        "astId": 130,
        "contract": "contracts/StakedDistributor.sol:StakedDistributor",
        "label": "__gap",
        "offset": 0,
        "slot": "52",
        "type": "t_array(t_uint256)49_storage"
      },
      {
        "astId": 1763,
        "contract": "contracts/StakedDistributor.sol:StakedDistributor",
        "label": "recipients",
        "offset": 0,
        "slot": "101",
        "type": "t_mapping(t_address,t_mapping(t_address,t_struct(Recipient)1756_storage))"
      },
      {
        "astId": 1767,
        "contract": "contracts/StakedDistributor.sol:StakedDistributor",
        "label": "shares",
        "offset": 0,
        "slot": "102",
        "type": "t_mapping(t_address,t_uint256)"
      },
      {
        "astId": 1771,
        "contract": "contracts/StakedDistributor.sol:StakedDistributor",
        "label": "shareIndex",
        "offset": 0,
        "slot": "103",
        "type": "t_mapping(t_address,t_uint256)"
      },
      {
        "astId": 1773,
        "contract": "contracts/StakedDistributor.sol:StakedDistributor",
        "label": "totalShares",
        "offset": 0,
        "slot": "104",
        "type": "t_uint256"
      },
      {
        "astId": 1814,
        "contract": "contracts/StakedDistributor.sol:StakedDistributor",
        "label": "claimable",
        "offset": 0,
        "slot": "105",
        "type": "t_address"
      },
      {
        "astId": 1818,
        "contract": "contracts/StakedDistributor.sol:StakedDistributor",
        "label": "tokens",
        "offset": 0,
        "slot": "106",
        "type": "t_array(t_address)dyn_storage"
      },
      {
        "astId": 1823,
        "contract": "contracts/StakedDistributor.sol:StakedDistributor",
        "label": "tokenExists",
        "offset": 0,
        "slot": "107",
        "type": "t_mapping(t_address,t_bool)"
      },
      {
        "astId": 2287,
        "contract": "contracts/StakedDistributor.sol:StakedDistributor",
        "label": "_notEntered",
        "offset": 0,
        "slot": "108",
        "type": "t_bool"
      },
      {
        "astId": 319,
        "contract": "contracts/StakedDistributor.sol:StakedDistributor",
        "label": "_balances",
        "offset": 0,
        "slot": "109",
        "type": "t_mapping(t_address,t_uint256)"
      },
      {
        "astId": 325,
        "contract": "contracts/StakedDistributor.sol:StakedDistributor",
        "label": "_allowances",
        "offset": 0,
        "slot": "110",
        "type": "t_mapping(t_address,t_mapping(t_address,t_uint256))"
      },
      {
        "astId": 327,
        "contract": "contracts/StakedDistributor.sol:StakedDistributor",
        "label": "_totalSupply",
        "offset": 0,
        "slot": "111",
        "type": "t_uint256"
      },
      {
        "astId": 329,
        "contract": "contracts/StakedDistributor.sol:StakedDistributor",
        "label": "_name",
        "offset": 0,
        "slot": "112",
        "type": "t_string_storage"
      },
      {
        "astId": 331,
        "contract": "contracts/StakedDistributor.sol:StakedDistributor",
        "label": "_symbol",
        "offset": 0,
        "slot": "113",
        "type": "t_string_storage"
      },
      {
        "astId": 911,
        "contract": "contracts/StakedDistributor.sol:StakedDistributor",
        "label": "__gap",
        "offset": 0,
        "slot": "114",
        "type": "t_array(t_uint256)45_storage"
      },
      {
        "astId": 2333,
        "contract": "contracts/StakedDistributor.sol:StakedDistributor",
        "label": "withdrawalPendingTime",
        "offset": 0,
        "slot": "159",
        "type": "t_uint256"
      },
      {
        "astId": 2338,
        "contract": "contracts/StakedDistributor.sol:StakedDistributor",
        "label": "withdrawal",
        "offset": 0,
        "slot": "160",
        "type": "t_mapping(t_address,t_struct(Withdrawal)2322_storage)"
      },
      {
        "astId": 2340,
        "contract": "contracts/StakedDistributor.sol:StakedDistributor",
        "label": "underlying",
        "offset": 0,
        "slot": "161",
        "type": "t_address"
      }
    ],
    "types": {
      "t_address": {
        "encoding": "inplace",
        "label": "address",
        "numberOfBytes": "20"
      },
      "t_array(t_address)dyn_storage": {
        "base": "t_address",
        "encoding": "dynamic_array",
        "label": "address[]",
        "numberOfBytes": "32"
      },
      "t_array(t_uint256)45_storage": {
        "base": "t_uint256",
        "encoding": "inplace",
        "label": "uint256[45]",
        "numberOfBytes": "1440"
      },
      "t_array(t_uint256)49_storage": {
        "base": "t_uint256",
        "encoding": "inplace",
        "label": "uint256[49]",
        "numberOfBytes": "1568"
      },
      "t_array(t_uint256)50_storage": {
        "base": "t_uint256",
        "encoding": "inplace",
        "label": "uint256[50]",
        "numberOfBytes": "1600"
      },
      "t_bool": {
        "encoding": "inplace",
        "label": "bool",
        "numberOfBytes": "1"
      },
      "t_mapping(t_address,t_bool)": {
        "encoding": "mapping",
        "key": "t_address",
        "label": "mapping(address => bool)",
        "numberOfBytes": "32",
        "value": "t_bool"
      },
      "t_mapping(t_address,t_mapping(t_address,t_struct(Recipient)1756_storage))": {
        "encoding": "mapping",
        "key": "t_address",
        "label": "mapping(address => mapping(address => struct Distributor.Recipient))",
        "numberOfBytes": "32",
        "value": "t_mapping(t_address,t_struct(Recipient)1756_storage)"
      },
      "t_mapping(t_address,t_mapping(t_address,t_uint256))": {
        "encoding": "mapping",
        "key": "t_address",
        "label": "mapping(address => mapping(address => uint256))",
        "numberOfBytes": "32",
        "value": "t_mapping(t_address,t_uint256)"
      },
      "t_mapping(t_address,t_struct(Recipient)1756_storage)": {
        "encoding": "mapping",
        "key": "t_address",
        "label": "mapping(address => struct Distributor.Recipient)",
        "numberOfBytes": "32",
        "value": "t_struct(Recipient)1756_storage"
      },
      "t_mapping(t_address,t_struct(Withdrawal)2322_storage)": {
        "encoding": "mapping",
        "key": "t_address",
        "label": "mapping(address => struct StakedDistributor.Withdrawal)",
        "numberOfBytes": "32",
        "value": "t_struct(Withdrawal)2322_storage"
      },
      "t_mapping(t_address,t_uint256)": {
        "encoding": "mapping",
        "key": "t_address",
        "label": "mapping(address => uint256)",
        "numberOfBytes": "32",
        "value": "t_uint256"
      },
      "t_string_storage": {
        "encoding": "bytes",
        "label": "string",
        "numberOfBytes": "32"
      },
      "t_struct(Recipient)1756_storage": {
        "encoding": "inplace",
        "label": "struct Distributor.Recipient",
        "members": [
          {
            "astId": 1753,
            "contract": "contracts/StakedDistributor.sol:StakedDistributor",
            "label": "lastShareIndex",
            "offset": 0,
            "slot": "0",
            "type": "t_uint256"
          },
          {
            "astId": 1755,
            "contract": "contracts/StakedDistributor.sol:StakedDistributor",
            "label": "credit",
            "offset": 0,
            "slot": "1",
            "type": "t_uint256"
          }
        ],
        "numberOfBytes": "64"
      },
      "t_struct(Withdrawal)2322_storage": {
        "encoding": "inplace",
        "label": "struct StakedDistributor.Withdrawal",
        "members": [
          {
            "astId": 2319,
            "contract": "contracts/StakedDistributor.sol:StakedDistributor",
            "label": "amount",
            "offset": 0,
            "slot": "0",
            "type": "t_uint256"
          },
          {
            "astId": 2321,
            "contract": "contracts/StakedDistributor.sol:StakedDistributor",
            "label": "releaseTime",
            "offset": 0,
            "slot": "1",
            "type": "t_uint256"
          }
        ],
        "numberOfBytes": "64"
      },
      "t_uint256": {
        "encoding": "inplace",
        "label": "uint256",
        "numberOfBytes": "32"
      },
      "t_uint8": {
        "encoding": "inplace",
        "label": "uint8",
        "numberOfBytes": "1"
      }
    }
  }
}